:020000040800F2
:10000000B80A002029020008CF2E00087B2A000829
:10001000CD2E0008E505000833330008000000007D
:10002000000000000000000000000000D32E0008C7
:100030003306000800000000D12E0008D52E00086D
:10004000430200084302000843020008430200087C
:10005000430200084302000843020008430200086C
:10006000430200084302000843020008430200085C
:10007000430200084302000843020008430200084C
:10008000430200084302000843020008430200083C
:10009000430200084302000843020008430200082C
:1000A000430200084302000843020008430200081C
:1000B0004302000843020008000000004302000859
:1000C0004302000800000000000000004302000896
:1000D0000000000043020008430200084302000839
:1000E0004302000843020008000000000000000076
:1000F0000000000000000000000000000000000000
:1001000000000000000000000000000000000000EF
:100110000000000000000000692F000843020008F2
:1001200000000000000000000000000000000000CF
:1001300000000000000000000000000000000000BF
:1001400043020008430200080000000043020008C8
:10015000430200084302000843020008430200086B
:1001600043020008430200080000000000000000F5
:10017000000000000000000000000000000000007F
:10018000000000004302000800F002F800F03CF814
:100190000AA090E8000C82448344AAF10107DA45E2
:1001A00001D100F031F8AFF2090EBAE80F0013F0F8
:1001B000010F18BFFB1A43F0010318470842000063
:1001C00028420000103A24BF78C878C1FAD85207F4
:1001D00024BF30C830C144BF04680C6070470000C1
:1001E0000023002400250026103A28BF78C1FBD840
:1001F000520728BF30C148BF0B6070471FB504F0DD
:10020000BAF81FBD10B510BD00F0CFF81146FFF7CA
:10021000F5FF03F09BF900F0EDF803B4FFF7F2FFF0
:1002200003BC00F0F5F80000094880470948004782
:10023000FEE7FEE7FEE7FEE7FEE7FEE7FEE7FEE796
:10024000FEE7FEE704480549054A064B70470000F3
:10025000592F000889010008B8040020B80A0020BE
:10026000B8060020B806002053EA020C00F06980AE
:100270002DE9F04B4FF00006002B1FBFB3FA83F5BA
:1002800003FA05F424FA05F65E4012BF1643B2FAEB
:1002900082F502FA05F4C5F120051EBF22FA05FC1D
:1002A00044EA0C04203556EA044C4FEA144418BFC3
:1002B000641C4FF000084FF00009904271EB030CF2
:1002C00039D3002919BFB1FA81F701FA07F6B0FA5C
:1002D00080F700FA07F6C7F120071EBF20FA07FCD7
:1002E00046EA0C062037B6FBF4FCA7EB0507103FE7
:1002F00007F01F0BCBF120060CFA0BFB2CFA06F6CD
:1003000044BFB3460026202FA4BF5E464FF0000B2B
:100310005BEA060C08BF4FF0010B19EB0B09ABFBB6
:10032000027C48EB0608C01B06FB02CC0BFB03CC8F
:1003300071EB0C01C1E70B46024641464846BDE859
:10034000F08B13B54FF000004FF00001AFF30080C9
:10035000BDE81C4070474FF0000200B513469446BC
:100360009646203922BFA0E80C50A0E80C50B1F10D
:100370002001BFF4F7AF090728BFA0E80C5048BF21
:100380000CC05DF804EB890028BF40F8042B08BFBF
:10039000704748BF20F8022B11F0804F18BF00F8BB
:1003A000012B7047704770477047754600F02CF876
:1003B000AE4605006946534620F00700854618B052
:1003C00020B5FFF73FFFBDE820404FF000064FF09B
:1003D00000074FF000084FF0000B21F00701AC467A
:1003E000ACE8C009ACE8C009ACE8C009ACE8C00999
:1003F0008D46704710B50446AFF300802046BDE837
:100400001040FFF70ABF0000004870475404002066
:1004100001491820ABBEFEE726000200704700002D
:1004200090ED070AD0ED080A30EE600A80ED0A0A66
:10043000D0ED091AF0EEC00A90ED0B1AF4EEE10AC5
:10044000F1EE10FA02D2DFED180A0DE0D0ED040A49
:10045000D0ED051A90ED0C2A60EE800A41EEC10A3B
:10046000D0ED061A41EE820AC0ED0D0AD0ED0E0A5B
:10047000D0ED0D1A70EEA10AC0ED0E0A80ED0C1A37
:1004800080ED0B0A90ED0F0AF4EEC00AF1EE10FABF
:1004900006DC90ED100AF4EEC00AF1EE10FA01D27B
:1004A00080ED0E0A70470000000000000146406A1F
:1004B000026C12F0500F03D0806B026B084610479D
:1004C000016C41F4007101640168C96811F4406F66
:1004D0000CD1417E51B9016C21F480710164016C31
:1004E000C90403D4016C41F00101016400F026BB92
:1004F000406A016C41F040010164416C41F004012B
:10050000416400F01DBB406A00F019BB70B50446A1
:100510000068816801F0030101292AD10168C90737
:1005200027D0816801F00D01012914D1816841F0C3
:100530000201816021680320086000F011FF054678
:1005400013E000BF00F00CFF401B02280DD920680B
:100550008068C00709D0206C40F010002064606CF7
:1005600040F001006064012070BD20688068C00711
:10057000E8D1002070BD000070B5044600688168B5
:1005800001F00301012902D10168C90725D1816861
:10059000134A114212D1816841F00101816000F0DB
:1005A000DFFE054614E000BF00F0DAFE401B022823
:1005B0000ED920680068C043C00709D0206C40F005
:1005C00010002064606C40F001006064012070BD88
:1005D00020680068C043C007E6D1002070BD00005D
:1005E0003F000080FEE70000054A01681144142224
:1005F000B1FBF2F1890001640249C1637047000058
:10060000F8FFFDBF0000024030B590F840500124D3
:10061000AC40C56B6C60046863604368102B036872
:1006200003D099600068C26030BD9A600068C16004
:1006300030BD704772B6FEE70A4B30F81100012258
:10064000D3ED000A00EE100A521C322AB8EE400A1E
:1006500070EE200AF6DD9FED041A80EE810A83ED2C
:10066000000A704734000020000048422DE9F041A4
:10067000044690F83C00884601280AD0012584F8F9
:100680003C502046FFF742FF06004FF0000703D022
:1006900037E00220BDE8F08125642068816821F000
:1006A00080418160B8F1010F04D12068816841F078
:1006B000804181602068816841F00041816000F0E4
:1006C0004FFE054613E000BF00F04AFE401B0A281B
:1006D0000DD920688068002809DA206C20F002001B
:1006E00040F01000206484F83C700120D2E72068BC
:1006F00080680028E8DB206C20F0020040F0010058
:10070000206484F83C703046C4E7000070B502688D
:1007100000234FF0A04494B0A24200D1314C009489
:1007200090F83C40012C1FD0012480F83C40926896
:1007300052074CD4009A9268520748D42A4A0D684E
:1007400040F61F7445B3956890F8306025F4604515
:1007500045EA46354E68354395600568AE6806F053
:100760000306012E06D102E0022014B070BD2D68F0
:10077000ED0731D1009DAD6805F00305012D03D1D2
:10078000009D2D68ED0727D10D6889680D4391689C
:10079000A1430D4395601FE0916821F46041916091
:1007A00001688D6805F00305012D02D10968C907AC
:1007B00012D10099896801F00301012903D1009940
:1007C0000968C90708D19168A143916004E0016CF0
:1007D00041F0200101640123002180F83C101846FB
:1007E000C3E700000001005000030050F0B594B0D2
:1007F0000025009590F83C202E46012A19D00127AB
:1008000080F83C7003689A6852077CD44A681F24B9
:10081000052A11D2D3F830C002EB420252009440B4
:100820002CEA040C0C6894404CEA040CC3F830C069
:1008300035E0022014B0F0BD0A2A0FD2D3F834C03C
:10084000521F02EB4202520094402CEA040C0C6846
:1008500094404CEA040CC3F834C020E00F2A0FD2B5
:10086000D3F838C00A3A02EB4202520094402CEA14
:10087000040C0C6894404CEA040CC3F838C00EE039
:10088000D3F83CC00F3A02EB4202520094402CEAEB
:10089000040C0C6894404CEA040CC3F83CC0026899
:1008A000936813F00C0F4FF0070374D1D1F800E0F8
:1008B000BEF10A0F10D39469AEF10A0E0EEB4E0C86
:1008C00003FA0CFE24EA0E04D1F808E00EFA0CFE3E
:1008D00044EA0E0494610FE0D2F814C00EEB4E040B
:1008E00003FA04FE2CEA0E0CD1F808E00EFA04FE1E
:1008F0004CEA0E0CC2F814C002684C69D2F80CC065
:10090000CCF3C10C00E0E1E04FEA4C0C04FA0CF42B
:10091000D1F810E0DFF810C2BEF1010F42D0BEF1F5
:10092000020F4DD0BEF1030F58D0BEF1040F63D0BB
:10093000146E91F800C004F0F844B4EB8C6F03D14E
:10094000146E24F0004414660268546E91F800C0DE
:1009500004F0F844B4EB8C6F03D1546E24F00044DF
:1009600054660268946E91F800C004F0F844B4EB49
:100970008C6F03D1946E24F0004494660268D46EA8
:1009800091F800C004F0F844B4EB8C6F03D1D46E3E
:1009900024F00044D4660268946804F00304012C37
:1009A0003AD136E0D2F860E00EEA0C0E91F800C0C1
:1009B00044EA8C644EEA040E4EF000441466EAE702
:1009C000D2F864E00EEA0C0E91F800C044EA8C64A0
:1009D0004EEA040E4EF000445466DCE7D2F868E0BC
:1009E0000EEA0C0E91F800C044EA8C644EEA040E44
:1009F0004EF000449466CEE7D2F86CE00EEA0C0E9E
:100A000091F800C044EA8C644EEA040E4EF00044B3
:100A1000C0E71468E4075ED1CC68012C06D052F818
:100A2000B03F0C78A740BB43136020E052F8B04FB2
:100A300091F800C007FA0CF73C4314600A68046898
:100A40000A2A0AD3A769093A02EB420293409F435C
:100A50008B6893401F43A76109E06769521C02EB52
:100A6000420293409F438B6893401F43676109682C
:100A70002E4A102904D0112905D0122906D02AE0C7
:100A800093681B0204E09368DB0101E093685B025A
:100A9000002B20DB03684FF0A044A34202D1244F77
:100AA000009700E000949F6807F00307012F02D130
:100AB0001F68FF070AD1009F8FB1BF6807F00307C7
:100AC000012F0CD1009F3F68FF0708D0016C41F057
:100AD00020010164012580F83C602846AAE610291F
:100AE00008D011291AD01229F5D1916841F480015A
:100AF0009160F0E7A342EED1916841F4000191606A
:100B00000C490D4A0968B1FBF2F101EB8101490082
:100B100000E0491E00910029FBD1DCE7A342DAD1B5
:100B2000916841F08071E3E700F0FF83000300501B
:100B3000000100504400002040420F007047704701
:100B400070470000F0B54FF0000595B004002F4647
:100B50002E46009505D0206CC00648D4206C18B1F4
:100B600033E0012015B0F0BD6664E664A66484F845
:100B70003C60204600F0D8F820688068C00024D48B
:100B80002046FFF7C3FC0546206CC0061DD4E5B91E
:100B9000206C20F4885040F00200206420688168B6
:100BA00021F0405181602068816841F0805181606E
:100BB000574858490068B0FBF1F000EB8000400056
:100BC00000E0401E00900028FBD120688168C90029
:100BD00002D5806880000AD5206C20F0020040F029
:100BE00010002064606C40F0010060640125206CFE
:100BF000C0067DD4002D7BD12068816849077ED452
:100C0000216C21F4807141F00201216442494FF0CE
:100C1000A042904200D1414A0092826802F0030251
:100C2000012A02D10068C00710D1009840B1806845
:100C300000F00300012803D100980068C00705D127
:100C40008868626820F4403010438860D4E902105C
:100C50000843616B012902D04FF4805200E000226A
:100C6000617E42EA4132104394F820203843012A41
:100C70000AD1A9B1216C21F0020141F020012164C7
:100C8000616C41F001016164A16A012902D0E26A4C
:100C90001143084321688A6812F00C0F08D013E052
:100CA000A18C1F4A02EB4141014341F48030EBE744
:100CB000CA6844F202039A43CA60217E94F8302045
:100CC000890341EA420108432168CA68154B1A406A
:100CD0000243CA60206901282068016B21F00F01DE
:100CE00002D1E269521E114301636664206C00E088
:100CF00005E020F0020040F00100206406E0206CD6
:100D000020F0020040F0100020640125284629E769
:100D10004400002040420F0000030050000100503A
:100D20000000FEFF07C0F0FF70B586B00546142135
:100D30006846FFF710FB2868B0F1A04F32D11A497E
:100D4000486940F080504861486900F08050059043
:100D5000486940F4003048614869002600F40030DA
:100D600005900B2000900320CDE9010669464FF065
:100D7000904000F0D7F90E4C0C48C4E900068020E2
:100D8000C4E9026040002061800060612020A06111
:100D90000002E061204600F053F908B1FFF74AFC79
:100DA000AC63656206B070BD0010024008000240EE
:100DB000BC0100202DE9F0470446006890468946B2
:100DC000806840076ED494F83C0001280CD00120C4
:100DD0004FF0A04684F83C00D6F808034FF0000717
:100DE000C00604D0012507E00220BDE8F0872046B8
:100DF000FFF7C2FB050002D084F83C7053E0206C82
:100E000040F60161884340F480702064D6F80803FE
:100E1000C00602D02068B04206D1206C20F48010B9
:100E200020642068C06807E0216C41F480112164CF
:100E30001E49884208D1F068800105D5206C20F455
:100E4000005040F480502064206CC00404D5606CD5
:100E500020F00600606400E0676484F83C70A16BD9
:100E600013488862A16B1348C862A16B12480863DB
:100E700021681C2008602068416841F01001416031
:100E80002068C16841F00101C160216843464A46BB
:100E90004031A06B00F0FBF82068816841F004014C
:100EA000816000E0022528469FE700000001005015
:100EB000AD04000807050008F104000870B504003F
:100EC00003D094F8200010B104E0012070BD20464A
:100ED00000F082F82068016841F00101016000F033
:100EE0003FFA0546052604E000F03AFA401B0A28BE
:100EF00011D820684068C007F6D02068016821F04A
:100F00000201016000F02CFA05460BE000F028FA1F
:100F1000401B0A2806D9606A40F40030606284F8F9
:100F20002060D2E7206840688007EFD4207E012847
:100F3000206801683DD021F080010160607E0128B9
:100F40002068016838D021F040010160A07E0128AE
:100F50002068016833D021F020010160E07E012883
:100F6000206801682ED041F010010160207F012827
:100F70002068016829D021F008010160607F012804
:100F80002068016824D021F004010160D4E9020145
:100F90000843D4E90412114308436168491E084319
:100FA0002168C86100206062012084F820000020D0
:100FB00070BD41F08001C0E741F04001C5E741F05C
:100FC0002001CAE721F01001CFE741F00801D4E782
:100FD00041F00401D9E7000010B586B004461421A1
:100FE0006846FFF7B8F91349206888421FD11248B4
:100FF000C16941F00071C161C16901F000710591E1
:10100000416941F4802141614069694600F48020D2
:1010100005904FF440700090022001900020029053
:101020000320039009200490044800F07BF806B0E8
:1010300010BD0000006400400010024000040048A1
:1010400070B5040021D0022084F8210022681168C4
:1010500043F6F0708143D4E901031843D4E9033522
:101060002B43184363691843A3691843E369184382
:10107000084310602046FFF7B7FA0020A063012163
:1010800084F8211084F8200070BD012070BD70B577
:10109000044690F82000002501280CD0012084F897
:1010A000200094F821600020012E06D084F8200052
:1010B0000225284670BD022070BD022684F82160FA
:1010C000A0632068066826F0010606602046FFF748
:1010D0009BFAE06A00282068016802D041F00E0106
:1010E00006E041F00A0101602068016821F0040176
:1010F00001602068016841F001010160D9E700004A
:1011000070B5044600F02CF90546601C02D0044876
:101110000078044400F024F9401BA042FAD370BDCB
:10112000380000202DE9F04FDFF80092002309F18C
:10113000040A012603250AF1040B85B00F270BF1E1
:10114000040EEAE006FA03F422407CD091F804C0D1
:101150000CF0030CBCF1010F02D0BCF1020F26D140
:10116000D0F808C0CDF800C04FEA430C05FA0CF8DF
:10117000CDF810C0DDF800C02CEA080CCDF800C096
:10118000D1F80C80DDF810C008FA0CF8DDF800C0CA
:1011900048EA0C08C0F80880D0F804C02CEA040C17
:1011A0000C79C4F300149C4044EA0C0444600C79AC
:1011B000E443A4070DD0D0F80CC04FEA430805FA69
:1011C00008F42CEA040C8C6804FA08F444EA0C04D1
:1011D000C4600C7904F00304022C19D1DC0800EB84
:1011E00084040294246A4FEA437C4FEADC6CCDF815
:1011F00010C007FA0CFC24EA0C04D1F81080DDF8CA
:1012000010C008FA0CF848EA0408029CC4F82080D0
:1012100004684FEA430805FA08FC24EA0C0491F834
:1012200004C00CF0030C0CFA08FC4CEA040CC0F8E7
:1012300000C04C6814F4403F6ED03D4CD4F818C048
:101240004CF0010C00E067E0C4F818C0A46923F07A
:10125000030C04F001040094364C64440294A46826
:101260004FEA837C4FEA1C7807FA08FC24EA0C0456
:10127000B0F1904F06D0DFF8C0C0604505D14FF007
:10128000010C12E04FF0000C0FE0DFF8B0C0604539
:1012900002D14FF0020C08E0DFF8A4C0604502D193
:1012A0004FF0030C01E04FF0050C0CFA08FC4CEA7F
:1012B000040C029CC4F808C0D9F80040CC46D1F810
:1012C000048094435FEAC83800D51443CCF800404A
:1012D000DAF80040D446D1F8048094435FEA8838B5
:1012E00000D51443CCF80040DBF80040DC46D1F8D0
:1012F000048094435FEAC82800D51443CCF800402A
:10130000DEF80040F446D1F8048094435FEA882870
:1013100000D51443CCF800405B1C0A6832FA03F491
:101320007FF410AF05B0BDE8F08F0000000401406D
:10133000001002400000014000040048000800487E
:10134000000C0048426921EA02030A4043EA0241D4
:10135000816170470AB18161704781627047000006
:10136000014880687047000038000020F0B590F810
:10137000C130022B27D090F8C030012B23D001259B
:1013800080F8C050022380F8C1300468D4F880335C
:101390000026012919D0022921D004292BD008299F
:1013A00035D0072180F8C11080F8C06090F8C110D6
:1013B000072938D00168C1F8803380F8C15080F81F
:1013C000C0600020F0BD0220F0BD23F4E0211368CE
:1013D00003F4E0230B435168C4F8BC13E6E723F49D
:1013E000601113684FF4601707EAC3030B43516899
:1013F000C4F8C013DAE723F0E07113684FF0E07728
:1014000007EA83130B435168C4F8C413CEE723F0F3
:10141000606113684FF0606707EA43230B4351682C
:10142000C4F8C813C2E70120F0BD10B590F8C02081
:10143000012A21D0012280F8C020022380F8C13087
:101440004B1C1BD00368D3F8CC4344F00204C3F810
:10145000CC430368D3F8CC4324F00C040C43C3F80A
:10146000CC430168D1F8CC3343F00103C1F8CC334D
:1014700080F8C120002010BD022010BD0168D1F805
:10148000CC3323F00203C1F8CC33EAE770B590F80F
:10149000C130022B3CD090F8C030012B38D0012550
:1014A00000F8C05F022343701388948803F4E0536C
:1014B000C4F308041C4313896FF07E4603F40073E1
:1014C0002343148A04F480441C43938903F40043A7
:1014D0002343948A06EA04441C43936903F000738F
:1014E0002343146AD26904F080441C4302F0004292
:1014F000224350F8C03CB82404EBC1141959054EDE
:10150000314011431951457000210170084670BDEA
:10151000022070BD0020003C38B5040054D00220E9
:1015200084F8C1000025C4F8C450C4F8C850C4F8F9
:10153000CC50C4F8D050C4F8D450C4F8D850207A55
:10154000C0071BD021492068884208D12048816902
:1015500041F000518161806900F0005000902168E5
:10156000086820F44042208A00F44040104320F4F0
:101570004052A08A00F4405010430860204600F01A
:1015800029F8207A800708D52168086820F440727D
:10159000A08900F4407010430860012084F8C10065
:1015A00084F8C0505FF00001C1EBC10004EB800083
:1015B000491C8561C561056245628562C9B20563E2
:1015C0000529F1D9002038BD012038BD0074014043
:1015D0000010024008B500680649884208D1064854
:1015E000816941F000518161806900F000500090F4
:1015F00008BD0000007401400010024010B586B024
:10160000044614216846FEF7A6FE0F49206888426A
:1016100018D10E48416941F4003141614069694681
:1016200000F4003005904FF47060009002200190AB
:1016300000200290032003900D2004904FF0904072
:10164000FFF770FD06B010BD0074014000100240AD
:1016500070B50D460446FFF783FE064607E0681C9A
:1016600005D0FFF77DFE801BA8420DD865B120682C
:10167000D0F88803C043C003F1D4012084F8C1002E
:10168000002084F8C00070BD072084F8C10003204A
:1016900070BD70B590F8C130022B23D0022380F8C2
:1016A000C130052920D08023046803EBC11563599C
:1016B00023F007069368334323F01806D3683343B7
:1016C00063519425046805EBC11513686351982490
:1016D000036804EBC11152685A50012180F8C1100F
:1016E000002070BD022070BD0368196821F0070456
:1016F0009168214321F01804D168214319600368DF
:1017000011685961516802689161E6E72DE9F04F6F
:1017100090F8C140022C25D090F8C040012C21D077
:101720004FF0010980F8C090022480F8C1400027E2
:101730004FF0070C052918D09C2404EBC116012A90
:1017400039D08024A8254FF4005A4FF4405B05EBB4
:10175000C11504EBC114022A2FD0042A45D0082A4F
:101760000BD144E00220BDE8F08F012A0AD0022A02
:101770000CD0042A0ED0082A10D080F8C1C080F8FE
:10178000C0700EE002681968D1610AE00268196849
:10179000516206E002681968916202E00268196805
:1017A000D16290F8C110072948D080F8C19080F824
:1017B000C0700020D7E7196835E04FF0A408D0F8D2
:1017C00000C008EBC1111A684CF8012059680029C3
:1017D00001680A5922F440522ED00A5101680A5970
:1017E000D3F804C042EA0C0218E0196821E04FF077
:1017F000AC08D0F800C008EBC1111A684CF8012001
:101800005968002901680A5922F4404214D00A514B
:1018100001680A59D3F804C042EA8C020A51596897
:10182000514503D1996802689151BAE75945B8D139
:10183000996802685151B4E70A51B2E7012092E772
:1018400010B590F8C020012A0ED0012200F8C02F58
:101850000223437050F8C03C1C680C431C6042706B
:1018600000210170084610BD022010BD70B504466D
:1018700090F8C100022811D094F8C00001280ED0C1
:10188000012584F8C050022084F8C100204600F0F1
:10189000ECFF84F8C150002084F8C00070BD022025
:1018A00070BD10B590F8C020012A10D0012200F8B8
:1018B000C02F0223437050F8C03CD3F894430C432C
:1018C000C3F89443427000210170084610BD022005
:1018D00010BD2DE9F041054690F8C10014460E46B2
:1018E000022825D095F8C000012823D0012785F8CB
:1018F000C070022085F8C100052E1DD0284601F0D9
:101900001BF8C6EBC60005EB800021680162616828
:101910004162A1688162E168C16221690163314667
:10192000284600F075FF85F8C170002085F8C000DA
:10193000BDE8F0810220FBE728680168D0F8A02309
:1019400021F020036169194321F40063A16919435F
:1019500021F48063E169194321F0C063216A1943CE
:1019600021F00063616A1943A36A21F0404141EA12
:10197000830121F00053216B194322F48033E26A82
:1019800001601A432868C0F8A023BAE702488168BA
:10199000027811448160704738000020074810B574
:1019A000016841F010010160032000F06DF80F2084
:1019B00000F006F800F024F8002010BD00200240DE
:1019C00070B50D4D04464FF47A712878B1FBF0F0F4
:1019D0000A490968B1FBF0F000F01AFD48B9102C73
:1019E00007D200222146501E00F02EF800206C6025
:1019F00070BD012070BD00003800002044000020B0
:101A0000094808B5816941F001018161816901F0EE
:101A100001010091C16941F08051C161C06900F0CC
:101A20008050009008BD000000100240002809DB33
:101A300000F01F02012191404009800000F1E020E8
:101A4000C0F8001170470000F0B40E4B1B680C4644
:101A5000C3F30223C3F10705042D00D90425191D82
:101A6000072901D2002300E0DB1E012606FA05F15A
:101A7000491E214099409E40761E16403143F0BCDD
:101A800001F058BC0CED00E0064900F007020868C0
:101A90004FF6FF03184040EA0220034A1043086053
:101AA000704700000CED00E00000FA052DE9F84F4A
:101AB0000446006800265C4DC0036ED5E869C0008E
:101AC00008D4E86940F08050E861E869012600F038
:101AD0008050009055480168C90512D401688046BD
:101AE00041F480710160FFF73BFC074605E000BF51
:101AF000FFF736FCC01B642835D8D8F80000C005B5
:101B0000F6D5286A10F4407053D0A18801F44071D2
:101B100081424ED0286A4FF4803191FAA1F2B2FA94
:101B200082F29700424A4FF00108174420F44070B7
:101B3000C7F8008491FAA1F1B1FA81F102EB8101B9
:101B40000023C1F800342862C00732D0FFF708FC38
:101B5000074641F2883A4FF0020907E0FFF700FC20
:101B6000C11B514502D90320BDE8F88F99FAA9F1AC
:101B7000B1FA81F141F040014846B8EB511F01D163
:101B800029680CE090FAA0F1B1FA81F141F040012E
:101B9000B0EB511F02D1296A01E015E0696A99FA98
:101BA000A9F0B0FA80F000F01F0008FA00F211422C
:101BB000D4D0286A616820F44070084328621EB1BE
:101BC000E86920F08050E8612078C00705D0286BD4
:101BD000A16820F00300084328632078800605D51B
:101BE000286BE16820F01000084328632078000685
:101BF00005D5E86A216920F4F8700843E862208876
:101C0000C00405D5286B616920F4807008432863FF
:101C10002088400405D5286BA16920F48050084332
:101C200028630020A0E70000001002400070004080
:101C3000000042422DE9F0470F46050069D04A4EA8
:101C4000306800F00700B84209D2306820F0070081
:101C500038433060306800F00700B84259D1287826
:101C6000424C800705D56068A96820F0F000084361
:101C700060602878C0073DD06968012001290DD037
:101C8000022923D05FF0020393FAA3F2B2FA82F2A0
:101C900042F02002520904D0226803E04FF40033DE
:101CA000F2E7626A93FAA3F3B3FA83F303F01F0334
:101CB000984002422DD0606820F003000843606025
:101CC000FFF74EFB804641F288390CE04FF000737D
:101CD000DAE700BFFFF744FBA0EB0801494502D952
:101CE0000320BDE8F0876068696800F00C00B0EB85
:101CF000810FEFD1306800F00700B8420BD930688F
:101D000020F0070038433060306800F00700B84228
:101D100001D00120E5E72878400705D56068E9682B
:101D200020F4E060084360602878000706D560680A
:101D3000296920F4605040EAC100606000F04EF86C
:101D40006168F02292FAA2F201F0F001B2FA82F296
:101D5000D140074A515CC8400649086006480068FF
:101D6000FFF72EFE0020BCE70020024000100240DA
:101D7000AA430008440000203C000020084809490C
:101D8000006849684FF4E06292FAA2F201F4E0615F
:101D9000B2FA82F2D140044A515CC8407047000058
:101DA0004400002000100240BA43000808480949D6
:101DB000006849684FF4605292FAA2F201F460514F
:101DC000B2FA82F2D140044A515CC8407047000028
:101DD0004400002000100240BA430008164A10B523
:101DE0005168164801F00C03042B20D0082B1ED19B
:101DF0004FF4701494FAA4F401F47013B4FA84F458
:101E0000E3400F4CD26AE45C0F2393FAA3F302F091
:101E10000F02B3FA83F3DA40094B1033C9039A5C1B
:101E200006D500231946FEF71FFAA0FB040110BDDA
:101E30000448A4FB000110BD0010024000127A000B
:101E40008A43000800093D002DE9F84F050071D0D4
:101E50002878FC4EC0074FF0010425D07068670455
:101E6000C0F38100012807D07068C0F38100022808
:101E70001BD17068C00318D597FAA7F0B0FA80F0AC
:101E800040F02000400901D0306800E0706A97FA05
:101E9000A7F1B1FA81F101F01F0104FA01F1084242
:101EA00065D068680028D2D061E06868B0F5803FEE
:101EB0000BD010B1B0F5A02F17D0306820F48030CF
:101EC0003060306820F4802002E0306840F48030D8
:101ED0003060F06AA96820F00F000843F06268687B
:101EE00020B3FFF73DFA80460AE0306840F48020D6
:101EF0003060EAE7FFF734FAA0EB0800642871D8F5
:101F000097FAA7F0B0FA80F040F02000400901D025
:101F1000306800E0706A97FAA7F1B1FA81F101F038
:101F20001F0104FA01F10842E4D020E0FFF718FA9B
:101F3000804607E0C2E000BFFFF712FAA0EB0800FE
:101F40006428DCD897FAA7F0B0FA80F040F02000BF
:101F5000400901D0306800E0706A97FAA7F1B1FA41
:101F600081F101F01F0104FA01F10842E4D128785F
:101F7000DFF8D48280074FF0000A4FF0020730D517
:101F800070684FF0F80B10F00C0F07D07068C0F3BA
:101F90008100022827D17068C00324D497FAA7F0E3
:101FA000B0FA80F040F02000400901D0306800E035
:101FB000706A97FAA7F1B1FA81F101F01F0104FAF2
:101FC00001F1084202D02869012877D130689BFAD4
:101FD000ABF220F0F8016869B2FA82F29040014356
:101FE00031605AE064E1286988B394FAA4F0B0FA49
:101FF00080F048F82040FFF7B3F9814606E000BFC3
:10200000FFF7AEF9A0EB090002289AD897FAA7F0DB
:10201000B0FA80F040F02000400901D0306800E0C4
:10202000706A97FAA7F1B1FA81F101F01F0104FA81
:1020300001F10842E4D030689BFAABF26969B2FA68
:1020400082F220F0F80091400843306025E0FFE77D
:1020500094FAA4F0B0FA80F048F820A0FFF780F9D5
:10206000814605E0FFF77CF9A0EB09000228CCD8F7
:1020700097FAA7F0B0FA80F040F02000400901D0B4
:10208000306800E0706A97FAA7F1B1FA81F101F0C7
:102090001F0104FA01F10842E4D1287800076CD549
:1020A000A869A8B394FAA4F0B0FA80F008EB800015
:1020B000C0F88044FFF754F9814607E0A4E100BF6F
:1020C000FFF74EF9A0EB090002289ED897FAA7F077
:1020D000B0FA80F040F06000B4EB501F01D13068DE
:1020E0000BE097FAA7F0B0FA80F040F06000B7EB91
:1020F000501F01D1306A00E0706A97FAA7F1B1FA77
:1021000081F101F01F0104FA01F21042D8D034E04D
:10211000FFE794FAA4F1B1FA81F108EB8101C1F86B
:1021200080A4FFF71DF9814606E000BFFFF718F90C
:10213000A0EB090002289AD897FAA7F0B0FA80F02D
:1021400040F06000B4EB501F01D130680BE097FA0B
:10215000A7F0B0FA80F040F06000B7EB501F01D15B
:10216000306A00E0706A97FAA7F1B1FA81F101F0E4
:102170001F0104FA01F21042D8D12878400768D52F
:10218000F0694FF00009C00009D4F06940F08050B8
:10219000F061F0694FF0010900F0805000902B4889
:1021A0000168C90512D4016841F480710160FFF72C
:1021B000D7F8834606E000BFFFF7D2F8A0EB0B008C
:1021C000642875D821480068C005F5D5E86801285D
:1021D0000AD008B1052811D0306A20F00100306221
:1021E000306A20F0040002E0306A40F00100306202
:1021F000E86868B3FFF7B4F883460DE0306A40F052
:1022000004003062F0E700BFFFF7AAF8A0EB0B0173
:1022100041F2883081424BD897FAA7F0B0FA80F0AB
:1022200040F04000B4EB501F01D1306813E097FA42
:10223000A7F0B0FA80F040F04000B7EB501F09D192
:10224000306A08E000100240000042420070004086
:102250000CE040E0706A97FAA7F1B1FA81F101F061
:102260001F0104FA01F21042CED02DE0FFF778F8FA
:10227000834607E0FFF774F8A0EB0B0141F28830CA
:10228000814215D897FAA7F0B0FA80F040F04000EC
:10229000B4EB501F01D130680CE097FAA7F0B0FA08
:1022A00080F040F04000B7EB501F02D1306A01E0EF
:1022B00083E0706A97FAA7F1B1FA81F101F01F018A
:1022C00004FA01F21042D5D1B9F1000F03D0F06940
:1022D00020F08050F061E86980B37168C1F381013A
:1022E000022977D04FF080714F000228504609D064
:1022F00091FAA1F1B1FA81F148F82100FFF730F825
:1023000005465DE0894691FAA1F1B1FA81F1C24634
:1023100048F82100FFF724F8804605E0FFF720F891
:10232000A0EB0800022848D897FAA7F0B0FA80F08E
:1023300040F02000400902D0306801E066E0706A99
:1023400097FAA7F1B1FA81F101F01F0104FA01F146
:102350000842E3D1D5E908100843716821F47411EB
:102360000843706099FAA9F0B0FA80F04AF820406A
:10237000FEF7F6FF054604E0FEF7F2FF401B0228D9
:102380001BD897FAA7F0B0FA80F040F0200040097F
:1023900001D0306800E0706A97FAA7F1B1FA81F1D4
:1023A00001F01F0104FA01F10842E5D02EE000BF60
:1023B000FEF7D6FF401B022802D90320BDE8F88FA4
:1023C00097FAA7F0B0FA80F040F02000400902D060
:1023D000306801E00BE0706A97FAA7F1B1FA81F179
:1023E00001F01F0104FA01F10842E1D10EE00128D9
:1023F000E4D070682A6A00F48031914204D1696A9D
:1024000000F47010884201D00120D7E70020D5E702
:1024100010B5401EB0F1807F01D3012010BD4FF0F8
:10242000E02460610F21601700F084FF0020A061AC
:1024300007202061002010BD7047704770470000E2
:10244000F0B590F83C20012A2CD0012480F83C40C3
:10245000022280F83D2003685A689D68124EB342FC
:1024600003D122F470074A683A4322F070070A68E1
:102470003A435A600268B24208D0B2F1804F05D0A8
:102480000A4B9A4202D00A4B9A4204D1896825F03D
:1024900080031943916080F83D40002180F83C1092
:1024A0000846F0BD0220F0BD002C014000040040B1
:1024B0000040014010B5040003D094F83D0010B175
:1024C00007E0012010BD002084F83C00204600F009
:1024D00023F8022084F83D00211D206800F04EFD05
:1024E000012084F8480084F83E0084F83F0084F816
:1024F000400084F8410084F8420084F8430084F8E6
:10250000440084F8450084F8460084F8470084F8C5
:102510003D00002010BD000008B500680B4988424E
:1025200012D10B48C16941F01001C161C06900229C
:1025300000F01000009011463620FFF785FABDE844
:1025400008403620FFF772BA08BD000000100040B6
:102550000010024090F83D10012901D00120704781
:10256000022180F83D100168CA6842F00102CA6089
:1025700000680D49884208D0B0F1804F05D00B4962
:10258000884202D00A49884207D18168094A11402D
:10259000062906D0B1F5803F03D0016841F0010162
:1025A0000160002070470000002C01400004004042
:1025B0000040014007000100704770B50446006804
:1025C00001694FF00005C943890715D4C168C943A3
:1025D000890711D4E91E01610120207720688069F4
:1025E0008007204602D0FFF7E7FF04E000F0A7F8DD
:1025F000204600F0A5F8257720680169C9434907FE
:1026000017D4C168C943490713D46FF004010161AD
:10261000022020772068806910F4407F204602D095
:10262000FFF7CAFF04E000F08AF8204600F088F8BF
:10263000257720680169C943090716D4C168C943D1
:10264000090712D46FF00801016104202077206887
:10265000C0698007204602D0FFF7AEFF04E000F01B
:102660006EF8204600F06CF8257720680169C943B0
:10267000C90617D4C168C943C90613D46FF0100145
:102680000161082020772068C06910F4407F20464F
:1026900002D0FFF791FF04E000F051F8204600F06F
:1026A0004FF8257720680169C943C90708D1C16877
:1026B000C943C90704D1891E0161204600F041F8D1
:1026C00020680169C943090609D4C168C9430906DC
:1026D00005D46FF0800101612046FFF7AEFE20684F
:1026E0000169C943C90509D4C168C943090605D4AC
:1026F0006FF4807101612046FFF79EFE206801693A
:10270000C943490609D4C168C943490605D46FF0D5
:1027100040010161204600F015F820680169C943B5
:1027200089060BD4C168C943890607D46FF020011C
:1027300001612046BDE87040FFF780BE70BD704764
:1027400070477047704710B5040002D0A06F10B1F9
:1027500007E0012010BD002084F87400204600F03E
:1027600025F82420A0672068016821F0010101609C
:10277000204600F0D9FC0128ECD0606A10B1204658
:1027800000F040FC2068416821F4904141602068DD
:10279000816821F02A0181602068016841F001010F
:1027A00001602046BDE8104000F090BC10B586B036
:1027B000044614216846FDF7CEFD12492068884280
:1027C0001ED11148816941F480418161816901F420
:1027D00080410591416941F4802141614069694628
:1027E00000F480200590C02000900220019000207D
:1027F000029003200390072004900448FEF792FC07
:1028000006B010BD0038014000100240000400482E
:10281000062911D2DFE801F00911171D2303006812
:10282000D0F8841341F0010104E00068D0F884136B
:1028300041F00201C0F8841370470068D0F8841397
:1028400041F00401F6E70068D0F8841341F0080174
:10285000F0E70068D0F8841341F01001EAE700685F
:10286000D0F8841341F02001E4E7F0B50024E4251A
:10287000076805EBC11657F806C0B82505EBC1156A
:102880007D59202A27D00CDC042A15D004DC012A2B
:1028900012D0022A2BD11EE0082A1CD0102A26D1E1
:1028A0000AE0402A08D0802A15D0B2F5807F03D0F4
:1028B000B2F5007F1BD10EE04FF0BC0E0EEBC11E37
:1028C0005A6847F80E204FF0C00E07680EEBC11192
:1028D0009A687A500BE0C42404EBC1145A683A5148
:1028E000C827046807EBC1119A6862501024FE21C2
:1028F000A1401A682CEA010CA240D96842EA0C02F5
:10290000A14011431A69D3F814C01746A2400A43E4
:102910000CFA04FC99694CEA020CA14041EA0C0152
:10292000082F06D1AA0504D4AA0102D4DA69A2406C
:10293000114300688151F0BD2DE9F04F80240368F8
:1029400004EBC1169C5924F070449C5103689A46CC
:102950009D59E82404EBC114A64653F80490E424DE
:1029600004EBC114A3461C59D3F8A03325F020076B
:1029700055693D4325F4006795693D4325F480671B
:10298000D5693D4325F0C067156A3D4325F00067D2
:10299000556A3D4325F07047956A3D43176B25F412
:1029A0000035B7F1005F01D145F4003525F040074F
:1029B000556BD2F848802F4327F4802C176D47EAD7
:1029C0000C0727F0FC7748EA070892F8387029F0DE
:1029D0001F0C07F01F0747EA0C0727F0004CD76BC6
:1029E00047EA0C0725B924F4807C146C44EA0C04F3
:1029F000D2F844C0BCF5606F02D0BCF5F05F01D1E5
:102A0000402D03D124F4F0544CEA0404D56C05297C
:102A100021D2DFE801F003090F151B00D26A23F46D
:102A2000003343EA420316E0D26A23F4802343EAE8
:102A3000820310E0D26A23F4002343EAC2030AE0CF
:102A4000D26A23F4801343EA021304E0D26A23F427
:102A5000001343EA42134AF80680066846F80E70EF
:102A6000066846F80B40D424026804EBC1115550A7
:102A70000068C0F8A033BDE8F08FFEE770B58AB0FB
:102A8000002406940794182168460894FDF763FC17
:102A900025484FF0A041012501604FF44031056108
:102AA000C0E90114447680F82040A902C1620326DF
:102AB000C6614FF4E071C460816280F83050082133
:102AC000416104764463FEF73DF808B1FDF7B2FDBD
:102AD00006A915480694FDF719FE08B1FDF7AAFDF1
:102AE000009501950425CDE90254049469460E48E9
:102AF0000594FDF77BFE08B1FDF79CFD02200090D8
:102B0000019069460848FDF771FE08B1FDF792FD96
:102B1000CDE9005669460448FDF768FE002801D05B
:102B2000FDF788FD0AB070BD6C0100200E4810B59D
:102B30000C4901600921416000214FF4803281601D
:102B4000C0E903124161017641768176C176017751
:102B50004177FEF7B3F9002803D0BDE81040FDF738
:102B600069BD10BD0064004000020020054808B5A2
:102B7000416941F001014161406900F001000090AC
:102B800008BD00000010024030B587B0142168462F
:102B9000FDF7E1FB1A48416941F4002141614169B7
:102BA00001F400210591416941F4800141614169CD
:102BB00001F480010591416941F4003141614169AD
:102BC00001F400310591416941F48021416140697E
:102BD0000C4D00F480204FF4005405900022214653
:102BE0002846FEF7B7FB012000210094CDE9010142
:102BF000039169462846FEF795FA07B030BD0000FC
:102C0000001002400008004830B5AFB000242E94F8
:102C10002D9429942A942B94542168462C94FDF7E2
:102C20009AFB2694279424211DA82894FDF793FB52
:102C3000202115A8FDF78FFB83488249C0E90014C5
:102C40008460FEF769FC08B1FDF7F4FC0C217E48B6
:102C5000FEF7EBFB08B1FDF7EDFC0A217A48FEF721
:102C6000F7FC08B1FDF7E6FC0420CDE92D402DAAC4
:102C700001217548FEF77AFB08B1FDF7DBFC4FF444
:102C8000F040CDE929040820CDE92B4029AA0521EF
:102C90006D48FEF7FEFC08B1FDF7CCFC00940194F2
:102CA00001200294CDE9034005940694079408940A
:102CB00009940A940B946A46052163480C94FEF724
:102CC00008FE08B1FDF7B6FC43F29030269026AB23
:102CD000012205215C48FEF719FD08B1FDF7AAFCA9
:102CE00043F2B060269026AB022205215648FEF73B
:102CF0000DFD08B1FDF79EFC4FF41650269026AB53
:102D0000042205215048FEF701FD08B1FDF792FCB1
:102D100044F2C040269026AB082205214A48FEF71F
:102D2000F5FC08B1FDF786FC29AA00214648FEF70C
:102D3000B0FC08B1FDF77EFC4FF48075009401945F
:102D40000D940E94CDE90F452804CDE9114013945C
:102D50006A4600213C481494FEF7BBFD08B1FDF71C
:102D600069FC6A4601213848FEF7B3FD08B1FDF75A
:102D700061FC44F6B070269026AB04220021324854
:102D8000FEF7C4FC08B1FDF755FC6420CDE91D40F9
:102D90001F942094CDE92140239424941DAA00215E
:102DA00029482594FEF772FB08B1FDF743FC1DAAE4
:102DB00001212548FEF76AFB08B1FDF73BFC4FF403
:102DC0000070CDE91545CDE9170419941A941B94A8
:102DD00015AB012200211C481C94FEF747FD08B1E9
:102DE000FDF728FC4FF4806016904000179015AB5B
:102DF000042201211448FEF739FD08B1FDF71AFC41
:102E0000169415AB022200210F481794FEF72EFDF1
:102E100008B1FDF70FFC15AB082201210A48FEF7A7
:102E200025FD08B1FDF706FC29AA01210648FEF799
:102E300030FC08B1FDF7FEFB0348FEF7DFFB2FB0C7
:102E400030BD000000740140280200203EB500247F
:102E50000E48009401940C49029401604721C0E996
:102E6000011463218461C160FFF724FB08B1FDF701
:102E7000E1FB0094694605480294FFF7E1FA002857
:102E800001D0FDF7D7FB3EBD001000400403002039
:102E90000D4810B50B4901604FF4E131416000214C
:102EA00081600C22C160C0E904128161C1610162CC
:102EB0004162FFF748FC002803D0BDE81040FDF751
:102EC000B9BB10BD00380140D0030020FEE7FEE78B
:102ED00070477047FEF75ABD30B597B02821684655
:102EE000FDF739FA14210AA8FDF735FA1C210FA8BD
:102EF000FDF731FA01210804CDE900100024029405
:102F000002250491CDE907504FF4E010099068467E
:102F1000FEF79AFF08B172B6FEE70F20CDE90A0569
:102F20004FF48060CDE90C4002210AA80E94FEF710
:102F300081FE08B172B6FEE744F201000F908010E6
:102F4000159011940FA8FEF7B1FD002801D072B6BC
:102F5000FEE717B030BD00000248016841F470017F
:102F60000160704788ED00E010B500F0ABFBBDE8F4
:102F700010400148FFF721BB04030020F0B50268B0
:102F80001B4B1C4F4FF0804C984203D0604501D042
:102F9000B84203D122F070044A682243164C174D00
:102FA000174E984209D0604507D0B84205D0A042DC
:102FB00003D0A84201D0B04203D122F44077CA68BE
:102FC0003A434F6922F080023A4302608A68C26243
:102FD0000A688262984205D0A04203D0A84201D07C
:102FE000B04201D10969016301214161F0BD0000D6
:102FF000002C01400004004000400140004401401A
:103000000048014090F82410C90706D001684A68BA
:10301000836A22F400321A434A6090F82410890728
:1030200006D501684A68C36A22F480321A434A60AE
:1030300090F82410490706D501684A68036B22F40A
:1030400080221A434A6090F82410090706D50168C7
:103050004A68436B22F400421A434A6090F82410F5
:10306000C90606D501688A68836B22F480521A4328
:103070008A6090F82410890606D501688A68C36BB7
:1030800022F400521A438A6090F82410490611D5A0
:1030900001684A68036C22F480121A434A60016C8A
:1030A000B1F5801F06D101684A68436C22F4C00262
:1030B0001A434A6090F82410090606D501684A6848
:1030C000806C22F4002202434A607047F8B5002663
:1030D0000446C0F88060FEF743F9054620680068A2
:1030E0006FF07E47000708D52B4600224FF40011F1
:1030F0002046009700F0BAF860B9206800684007E1
:103100000AD52B4600224FF480012046009700F09C
:10311000ADF808B10320F8BD2020A067E06726665F
:1031200084F874600020F8BD70B504468068216999
:10313000E269084361690025114322680843116868
:10314000444B19400143116020684168E26821F452
:10315000405111434160A169206A084321688A688F
:1031600022F4306202438A603B492068884210D1D1
:103170003A48006B10F0030011D0012805D0022856
:1031800005D003280DD102210CE004210AE008211A
:1031900008E03349884202D03249884201D10021F7
:1031A00000E01021E3694FF400422F484FF6EF761C
:1031B000934227D1092941D2DFE801F005080E40EA
:1031C0000B4040402200FEF7D9FD04E0FEF7EEFD83
:1031D00001E0FEF703FE90B34100606801EB50018F
:1031E000B1FBF0F080B2A0F11001B14226D84FF649
:1031F000F0710140C0F3420001432068C16023E048
:103200001046E9E7092919D2DFE801F005080E1890
:103210000B1818181A00FEF7B1FD04E0FEF7C6FD02
:1032200001E0FEF7DBFD50B1616800EB5100B0FB3F
:10323000F1F080B2A0F11001B14203D9012503E001
:103240001046F1E72168C86000206066A066284645
:1032500070BD0000F369FFEF00380140001002402C
:10326000004400400048004000127A002DE9F04779
:103270009A4617460E4604464FF000094FF02008C4
:10328000089D4AE0681C48D0FEF76AF8A0EB0A00E7
:10329000A8422AD84DB32068016849073DD5C069C6
:1032A000C043000539D421684FF4006008622068EB
:1032B00050E8001F21F4D07140E80012002AF6D136
:1032C0002068083050E8001F21F0010140E800129A
:1032D000002AF5D1C4F87880C4F87C80C4F88080D6
:1032E00084F874900320BDE8F087216851E8000F4E
:1032F00020F4D07041E80002002AF6D1206808309E
:1033000050E8001F21F0010140E80012002AF5D129
:10331000C4F87880C4F87C80E2E72068C06936EAA7
:10332000000004D00020B842ACD00020DBE7012030
:10333000F9E7FEE70907090E002804DB00F1E020A9
:1033400080F80014704700F00F0000F1E02080F8D2
:10335000141D704710B52DED028BB0EE608AF0EEB3
:10336000408A18EE101A18EE900A00F095FF00F04F
:103370007040B0F1004F0CD018EE100A20F0004061
:10338000C0F1FF40C00F02BFB0EE480ABDEC028B97
:1033900010BDB0EE680ABDEC028B10BD70B52DED0E
:1033A000068B9FED600A6048B0EE088A5F4C80EDA6
:1033B000040A80ED038AB3EE040A80ED000AB1EE40
:1033C000000A80ED010AB3EE060A80ED020A2168C8
:1033D000143088475448B6EE000A143080ED000AD5
:1033E0009FED530A80ED010A80ED028A9FED518A1C
:1033F000514D80ED038A80ED098A296800EE101A8C
:10340000B8EE400ADFED4D8A20EE280A80ED100A62
:10341000296800EE101AB8EE400A9FED499A20EE96
:10342000090A80ED0F0A616888473F4821685830D3
:103430008847DFED449A3C48B2EE080A5830C0EDA8
:10344000009A80ED010AB7EE080A80ED020A80EDCD
:10345000038A80ED098A296800EE101AB8EE400A46
:1034600020EE280A80ED100A296800EE101AB8EE46
:10347000400A20EE090A80ED0F0A616888472A4851
:103480002168E03088472848B2EE0B0AE0309FED13
:103490002EAAC0ED009A80ED010A80ED02AA80ED0F
:1034A000038A80ED098A296800EE101AB8EE400AF6
:1034B00020EE280A80ED100A296800EE101AB8EEF6
:1034C000400A20EE090A80ED0F0A61688847164815
:1034D00021689C3088471448B2EE050A9C30C0ED44
:1034E000009A80ED010A80ED02AA80ED038A80ED4A
:1034F000098A296800EE101AB8EE400A20EE280A60
:1035000080ED100A296800EE101AB8EE400A20EE8D
:10351000090A80ED0F0A6168BDEC068BBDE87040BA
:10352000084700000000A0424800002024000020BE
:103530009A9995410AD7233C147401400AD7233D38
:103540009A99D93FCDCCCC3E48E11A40FEF726FAF5
:10355000FFF7C2FCFFF718FBFFF708FBFFF78EFA37
:10356000FFF7E4FAFFF794FCFFF74EFBFFF76EFC62
:10357000FFF714FF00211048FDF778F803220F49E8
:103580000D48FDF717FC0F210D48FEF78AF94FF49F
:10359000E0210B48FEF754F90A48FEF7DBFF0A4D1D
:1035A0004FF400544FF4FA7621462846FDF7CAFE40
:1035B0003046FDF7A5FDF7E76C0100201C00002058
:1035C0002802002004030020000800489FED060A9E
:1035D00080ED0A0A80ED0B0A80ED0C0A80ED0D0AE1
:1035E00080ED0E0A7047000000000000D0ED000AD8
:1035F000B7EE000AF5EEC00AF1EE10FA01D880ED40
:10360000000AD0ED020AF5EEC00AF1EE10FA03D17D
:10361000DFED180AC0ED020AD0ED090AF5EEC00A86
:10362000F1EE10FA03D2DFED140AC0ED090AD0ED75
:10363000000AD0ED021A80EEA11AD0ED031A81EE35
:10364000A02A31EE001A71EE022A90ED011A62EE04
:10365000812AC0ED042AF0EE002A02EE220A20EEB2
:10366000010A80ED050A21EE210A80EE201A80ED84
:10367000061A70479EC97F7F000000009FED100A68
:1036800080ED040A80ED050A80ED060A80ED0A0A45
:1036900080ED0B0A80ED0C0A80ED000A80ED010A36
:1036A00080ED020A80ED030A80ED090A80ED0D0A23
:1036B00080ED0E0A80ED0F0A80ED100A70470000C1
:1036C000000000002DE9F04100212DED068B55484A
:1036D000FCF7B2FF534C01211C3C524884ED030A15
:1036E000FCF7AAFF84ED040A02214E48FCF7A4FF70
:1036F0004D4F84ED050A10EE106A3D68284600F033
:1037000093FD41EC1A0BE06800F08EFD9FED478BB6
:1037100053EC182B00F048FA9FED469B53EC192B05
:1037200000F09AFB53EC1A2B00F096FB00F062F9C4
:103730002060284600F078FD41EC1A0B206900F06B
:1037400073FD53EC182B00F02FFA53EC192B00F0FB
:1037500083FB53EC1A2B00F07FFB00F04BF905467E
:103760006060304600F060FD53EC182B00F01CFA4E
:1037700053EC192B00F070FB9FED301B53EC112B19
:1037800000F06AFB9FED2F1B53EC112B00F062FC45
:1037900000F030F9A06097ED020A07F114063046F8
:1037A00086ED070A3562294DE968884797ED041AC6
:1037B00094ED010A2649C1EE000A10EE900AC4ED0C
:1037C000060A884202DDB1EE040A09E010EE100A92
:1037D0002049884202DC94ED060A03E09FED1E0AB0
:1037E00084ED060A104F5837384687ED070A94EDE6
:1037F000020A87ED080AE9688847D7ED0E0A96EDB8
:103800000E0AFFF7A7FD86ED0E0A87ED0E0ABCEE45
:10381000C00ABDEC068B10EE100ABDE8F04100F0C6
:103820001DB800001C00002048000020000000001F
:1038300000FEAF400000006066660A40000000E045
:10384000D0220F40000000809ECDBA3F240000200F
:103850000000A0400000A841CDCCCC3D614910B58E
:103860000A6800EE102AF8EE400A9FED5F0A60EE4B
:10387000800AFCEEE00A10EE902ADFED5C0A82423C
:103880000A6801EE102AB8EE411A14D821EE001A87
:10389000BCEEC11A11EE102A821A01EE102A0A6833
:1038A000B8EE411A01EE902AF8EE611A01EEA01A64
:1038B000FCEEC10A03E061EE200AFCEEE00A0B68B0
:1038C00010EE902A00EE903AF8EE600A60EE800A60
:1038D000FCEEE00A10EE903A83420AD8086800EE47
:1038E000900AF8EE600A60EE800AFCEEE00A10EE44
:1038F000900A0B6800EE903AF8EE600A60EE800ADB
:10390000FCEEE00A10EE903A93420AD20A6800EE0A
:10391000902AF8EE600A60EE800AFCEEE00A10EEF3
:10392000902A0B6800EE903AB8EE601ADFED300A8C
:1039300021EE201ABCEEC11A11EE103A93420AD9B8
:103940000A6801EE102AB8EE411A21EE201ABCEEE8
:10395000C11A11EE102A0B6801EE103AB8EE411AA6
:1039600021EE001ABCEEC11A11EE103A83420AD2BF
:10397000086801EE100AB8EE411A21EE000ABCEE0A
:10398000C00A10EE100A0B6800EE103AB8EE400ABA
:1039900020EE200ABCEEC00A10EE103A83420AD98B
:1039A000086800EE100AB8EE400A20EE200ABCEECD
:1039B000C00A10EE100A0B680A4C1B1A5B08083488
:1039C00023600B681844074B4008103318600868E0
:1039D000104440081B1D18600868801A4008191D13
:1039E000086010BD147401406666663F8FC2753D65
:1039F0000AD7233D21F00042A2F16052B2F5801FA8
:103A000001F0004328BFD2F17F6C0BD95FEA001CA4
:103A100043EAC20242EB507018BF704728BF20F043
:103A200001007047B2F5801FBCBF184670474FEACF
:103A3000410C1CF5001F02D2084600F0A1BC70B575
:103A400000F0B4FA00000089FFF7F6BF4FF0004025
:103A5000A0F580007047000010B591EA030F48BF41
:103A600083F0004300F1FE82841A71EB030C05D24F
:103A7000121943EB0C03001B61EB0C01DFF824E18E
:103A80004FEA1154A4EB135C1EEA430F18BF9EEAE1
:103A9000445F73D023EA0E03DCF1200E21EA0451C7
:103AA00043F4801332D322FA0CFE10EB0E0023FAFB
:103AB0000CFE41EB0E01CCF1200E03FA0EFE10EBD2
:103AC0000E0051F10001B1F5801FCCF1200E32D271
:103AD00001EB045112FA0EF2BDE8104058BF7047D6
:103AE000401C38BF5FEA420218BF7047002814BF6D
:103AF00020F0010041F100014FEA410313F5001FDE
:103B000038BF7047A1F1C04100F09EBA012A43EBD3
:103B10000302ACF1200CDCF11F0E32BF4FF0000E9F
:103B200023FA0CF310EB030041EB0451B4EB115FEB
:103B3000D0D0A1EB045101F5801149085FEA3000B3
:103B400001EB04510ED350F1000038BF12FA0EFE03
:103B500008D1BDE81040C9E7401C38BF5FEA420207
:103B6000CAD1C3E7BDE810404FEA410313F5001F77
:103B700038BF7047A1F1C04100F066BA9EEA445FC9
:103B800008D011EA5E0FBDE8104004BF01F000410B
:103B900000207047BDE8104070B500F007FA00BF84
:103BA00064FBBE3E0000E0FF2DE9C04130B4DFF809
:103BB000A0C23CEA111418BF3CEA131400F0EC80D8
:103BC00081EA03051CEA111444EAD57418BF1CEA03
:103BD000131500F0C780A4EB05044FF0004545EA3B
:103BE000C12145EAC32341EA505143EA525304F14B
:103BF0007F74994204F500344FEAC0204FEAC22294
:103C000008BF904200F09C804FEA13650FF2401607
:103C1000765D4FEA134506FB05F7C7F1807706FB93
:103C200007F74FEAD737A7FB03687642C8F5803815
:103C3000A7FB06CE38BFA8F1010807FB08E64FF046
:103C4000000EA6FB028CE6FB03CEDCF1000CCEF1ED
:103C5000004E38BFAEF1010EA6FB0C584FF0000726
:103C60004FF00005E6FB0E87A1FB08C6A0FB07CEC0
:103C700016EB0E0645F10005E1FB076515F1E04E78
:103C80007EBFA4F580345FEA46066D4116F18007D9
:103C900045F100054FEA17274FEA066647EA056730
:103CA000A6F1DE46B6F1805F4FEA15251FD93846EA
:103CB00024F0010C05EBC471BCF1FE6F01EB0C119B
:103CC00002D8F0BCBDE8008124425CBF01F5801E33
:103CD0009EEAC47F02D4F0BCBDE80081244238D4FF
:103CE000F0BCA1F1C041BDE8004100F0ADB94FEA20
:103CF000D22242EA43524FEAD323A7FB02864FEA7D
:103D0000D02040EA415007FB03661EEA0E0F4FEA3F
:103D1000D12105FB026658BFA6EB0056B6EB005654
:103D20004FEA520E4EEAC37E18EB0E0E56EB530EC0
:103D3000BDD518EB02085E417F1C55F10005B6E7C2
:103D40004FF480154FF000074FF000064FF00008C9
:103D5000ADE7F0BC4FF0000001F1C04101F00041BF
:103D6000BDE8008111EA0C1F0CEA131500D00CE02D
:103D700013EA0C1F00F025804FF00000F0BC81EA30
:103D8000030101F00041BDE80081F0BCBDE8004145
:103D900081EA030100F058B9F0BCBDE8004170B5FC
:103DA00000F004F9097EFC3E00F007B881EA030147
:103DB0004FF0000001F00041704781EA030100F07C
:103DC00043B9F0BCBDE800414FF000002149704705
:103DD000FFFDFBF9F7F5F4F2F0EEEDEBE9E8E6E4D0
:103DE000E3E1E0DEDDDBDAD8D7D5D4D3D1D0CFCD57
:103DF000CCCBCAC8C7C6C5C4C2C1C0BFBEBDBCBB90
:103E0000BAB9B8B7B6B5B4B3B2B1B0AFAEADACAB8A
:103E1000AAA9A8A8A7A6A5A4A3A3A2A1A09F9F9E64
:103E20009D9C9C9B9A999998979796959594939316
:103E3000929191908F8F8E8E8D8C8C8B8B8A8989AD
:103E40008888878786858584848383828281818030
:103E50000000FF070000F87FDFF848C170B51CEADA
:103E6000111E1EBF1CEA13159EEA0C0F95EA0C0FDB
:103E700000F06F8081EA030423EA4C134EEAD47EFB
:103E800021EA4C1141F4801143F48013AE44A1FBAC
:103E9000024CA0FB0365AEF17F7E361955EB0C0595
:103EA000A1FB034C4CF10003A0FB021C16EB0C061B
:103EB000654153F10003094218BF46F0010613F4AF
:103EC000007F0BD14FEA03314FEA0530340341EA5A
:103ED000155140EA16506FF003020AE04FEAC32181
:103EE0004FEAC520F40241EA555140EA56506FF0BE
:103EF000020202EB2E4201EB025585EACE710AD096
:103F00005FEA440C18BF24F0004450F1000041F176
:103F1000000120EAD47040F2FE7C624500D270BD00
:103F2000A84214BF4FF080444FF04044002E08BF19
:103F30000024BEF1806FA8BFA1F1C041BDE8704070
:103F400080F282804FF0000001F1C04101F0004199
:103F500070479EEA0C0F0CEA131518BF95EA0C0F78
:103F600006D04FF0000081EA030E0EF0004170BD54
:103F700000F01CF88900013E00F007B800F009B815
:103F80004FEA430C5FEA5C5C08D081EA030100F071
:103F90005BB84FEA410C5FEA5C5CF6D14FF0000081
:103FA000014970470000FF070000F87F0EF1020E84
:103FB0002EF0030E5EF8046B364205D4012A43EB63
:103FC000030515F5001F12D8012841EB010C1CF563
:103FD000001F0CD80ED14FEAD17C15F5001F0CEB59
:103FE0004C0C0CF1020C08BF4CEBD37C04E04FF0FE
:103FF000080C01E04FEAD37C0CEB4C0526FA05F6E1
:1040000006F00706B6F1040C06D20EEB860CBDE8EE
:1040100070404CF0010C6047DFE80CF0090B020225
:104020004FF000414FF00000A1F5002170BD19468E
:104030001046012851EB010418BFD4F5001484BFC9
:10404000002001F0004170BD0808A0F500114FEA02
:104050003101704710B591EA030F48BF83F0004368
:104060003FF502AD841A71EB030C07D212198CF0E4
:10407000004C43EB0C03001B61EB0C01DFF8A4E1E7
:104080004FEA1154A4EB135C1EEA430F18BF9EEADB
:10409000445F00F0B08023EA6E03524221EA0451EB
:1040A000C3EB6E0338BF5B1EDCF1200E25D322FA72
:1040B0000CFE10EB0E0043FA0CFE41EB0E01CCF1AE
:1040C000200E03FA0EFE10EB0E0051F10001CCF1B0
:1040D000200E29D412FA0EF201EB0451BDE8104073
:1040E00058BF7047401C1CBFB2F1004F70470028FA
:1040F0000CBF491C20F00100704712EB020E43EB8D
:10410000030218BF4FF0010E4EEA4202ACF1200C40
:10411000DCF11E0E54D943FA0CFE10EB0E0051F1E7
:10412000FF31CCF11E0ED5D50EF1010E12FA0EFEA6
:10413000404141EB010101EB445C5FEA5C5C10D95A
:1041400010EBDE7001EB045138BFBEF1004FBDE84B
:10415000104018BF704700280CBF491C20F0010018
:10416000704730D24FEAD42C11F5001124F40064CA
:104170001BD0B1FA81F20B3AA41AA41ED2F120038B
:10418000914030FA03F31943904001EBCC71002CBD
:1041900001EB0451BDE81040A8BF704701F1C041D8
:1041A0004FF0000001F000417047B0FA80F310FAC0
:1041B00003F100D110BDE41A173C4805C90AE4E731
:1041C00001EB045110BD491001EB0451BDE8104052
:1041D0004FEA300002E04FF0000170474A0008BF8C
:1041E0000042F8D0B2F5001F28BF704701F000412F
:1041F0004FF0000070479EEA445F07D011EA5E0F5F
:10420000BDE8104004BF002100207047BDE8104009
:1042100070B5FFF7CBFE00BF40DFF63E83F00041F4
:10422000104670470000E0FF43004FEAD30C4FEA0E
:104230003C0C43401FBF40070CF1605113F0FE4F90
:1042400070471CF0006F03D100200CF00041704754
:104250000CF0004343EA507010B540EACC0000F087
:1042600044F800BF000000924FEA0001FFF7ECBEE7
:104270004FF000414FF00000A1F500217047000011
:1042800000EE100A00EE901AB4EE600AF1EE10FA99
:1042900078BF704700F00DB810B5FFF7F1FFEFF3EE
:1042A000008020F0104038BF40F0004080F30088CC
:1042B00010BDBDE8104010B500F017F8000000096F
:1042C00000F007B84FF0404010F1004FEFF30080CE
:1042D0007047401058BFC0F14040491058BFC1F16D
:1042E00040418142EFF3008070470EF1020E2EF044
:1042F000030E5EF8044B244204D44FEA4102B2F1AB
:104300007F4F11D84FEA4003B3F17F4F0CD80ED145
:104310004FEAD07CB2F17F4F0CEB4C0C0CF1020C4D
:1043200008BF4CEBD17C04E04FF0080C01E04FEAF1
:10433000D17C0CEB4C0324FA03F404F00704B4F131
:10434000040C06D20EEB840CBDE810404CF0010CBE
:104350006047DFE80CF0070802024FF00040A0F5CC
:10436000800010BD0846420018BFD2F1807288BF9D
:1043700000F0004010BD4FF04070E1EE100A7047B1
:10438000FF2141EAD050C00570470203040506072B
:1043900008090A0B0C0D0E0F10100102030405068C
:1043A0000708090A0B0C0D0E0F100000000000009A
:1043B00000000102030406070809000000000102D2
:1043C00003040000E443000800000020480000004F
:1043D000C40100082C44000848000020700A0000B6
:1043E000E0010008000000000000000000000000E4
:1043F00000000000000000000000000000000000BD
:1044000000000000000000007D360008ED350008C7
:10441000CD35000821040008000000000100000064
:0C442000100000000000000000127A00F4
:040000050800018965
:00000001FF
