:020000040800F2
:10000000B80A002029020008272F0008AF2A00089C
:10001000252F0008E5050008F3380008000000005F
:10002000000000000000000000000000F1320008A5
:1000300033060008000000009532000891340008E3
:10004000430200084302000843020008430200087C
:10005000430200084302000843020008430200086C
:10006000430200084302000843020008430200085C
:10007000430200084302000843020008430200084C
:10008000430200084302000843020008430200083C
:10009000430200084302000843020008430200082C
:1000A000430200084302000843020008430200081C
:1000B0004302000843020008000000004302000859
:1000C0004302000800000000000000004302000896
:1000D0000000000043020008430200084302000839
:1000E0004302000843020008000000000000000076
:1000F0000000000000000000000000000000000000
:1001000000000000000000000000000000000000EF
:100110000000000000000000253500084302000830
:1001200000000000000000000000000000000000CF
:1001300000000000000000000000000000000000BF
:1001400043020008430200080000000043020008C8
:10015000430200084302000843020008430200086B
:1001600043020008430200080000000000000000F5
:10017000000000000000000000000000000000007F
:10018000000000004302000800F002F800F03CF814
:100190000AA090E8000C82448344AAF10107DA45E2
:1001A00001D100F031F8AFF2090EBAE80F0013F0F8
:1001B000010F18BFFB1A43F00103184784520000D7
:1001C000A4520000103A24BF78C878C1FAD8520768
:1001D00024BF30C830C144BF04680C6070470000C1
:1001E0000023002400250026103A28BF78C1FBD840
:1001F000520728BF30C148BF0B6070471FB504F0DD
:10020000CCFB1FBD10B510BD00F0CFF81146FFF7B5
:10021000F5FF03F07BFC00F0EDF803B4FFF7F2FF0D
:1002200003BC00F0F5F80000094880470948004782
:10023000FEE7FEE7FEE7FEE7FEE7FEE7FEE7FEE796
:10024000FEE7FEE704480549054A064B70470000F3
:100250001535000889010008B8040020B80A0020FC
:10026000B8060020B806002053EA020C00F06980AE
:100270002DE9F04B4FF00006002B1FBFB3FA83F5BA
:1002800003FA05F424FA05F65E4012BF1643B2FAEB
:1002900082F502FA05F4C5F120051EBF22FA05FC1D
:1002A00044EA0C04203556EA044C4FEA144418BFC3
:1002B000641C4FF000084FF00009904271EB030CF2
:1002C00039D3002919BFB1FA81F701FA07F6B0FA5C
:1002D00080F700FA07F6C7F120071EBF20FA07FCD7
:1002E00046EA0C062037B6FBF4FCA7EB0507103FE7
:1002F00007F01F0BCBF120060CFA0BFB2CFA06F6CD
:1003000044BFB3460026202FA4BF5E464FF0000B2B
:100310005BEA060C08BF4FF0010B19EB0B09ABFBB6
:10032000027C48EB0608C01B06FB02CC0BFB03CC8F
:1003300071EB0C01C1E70B46024641464846BDE859
:10034000F08B13B54FF000004FF00001AFF30080C9
:10035000BDE81C4070474FF0000200B513469446BC
:100360009646203922BFA0E80C50A0E80C50B1F10D
:100370002001BFF4F7AF090728BFA0E80C5048BF21
:100380000CC05DF804EB890028BF40F8042B08BFBF
:10039000704748BF20F8022B11F0804F18BF00F8BB
:1003A000012B7047704770477047754600F02CF876
:1003B000AE4605006946534620F00700854618B052
:1003C00020B5FFF73FFFBDE820404FF000064FF09B
:1003D00000074FF000084FF0000B21F00701AC467A
:1003E000ACE8C009ACE8C009ACE8C009ACE8C00999
:1003F0008D46704710B50446AFF300802046BDE837
:100400001040FFF70ABF0000004870475804002062
:1004100001491820ABBEFEE726000200704700002D
:1004200090ED070AD0ED080A30EE600A80ED0A0A66
:10043000D0ED091AF0EEC00A90ED0B1AF4EEE10AC5
:10044000F1EE10FA02D2DFED180A0DE0D0ED040A49
:10045000D0ED051A90ED0C2A60EE800A41EEC10A3B
:10046000D0ED061A41EE820AC0ED0D0AD0ED0E0A5B
:10047000D0ED0D1A70EEA10AC0ED0E0A80ED0C1A37
:1004800080ED0B0A90ED0F0AF4EEC00AF1EE10FABF
:1004900006DC90ED100AF4EEC00AF1EE10FA01D27B
:1004A00080ED0E0A70470000000000000146406A1F
:1004B000026C12F0500F03D0806B026B084610479D
:1004C000016C41F4007101640168C96811F4406F66
:1004D0000CD1417E51B9016C21F480710164016C31
:1004E000C90403D4016C41F00101016400F03EBB7A
:1004F000406A016C41F040010164416C41F004012B
:10050000416400F035BB406A00F031BB70B5044671
:100510000068816801F0030101292AD10168C90737
:1005200027D0816801F00D01012914D1816841F0C3
:100530000201816021680320086000F025FF054664
:1005400013E000BF00F020FF401B02280DD92068F7
:100550008068C00709D0206C40F010002064606CF7
:1005600040F001006064012070BD20688068C00711
:10057000E8D1002070BD000070B5044600688168B5
:1005800001F00301012902D10168C90725D1816861
:10059000134A114212D1816841F00101816000F0DB
:1005A000F3FE054614E000BF00F0EEFE401B0228FB
:1005B0000ED920680068C043C00709D0206C40F005
:1005C00010002064606C40F001006064012070BD88
:1005D00020680068C043C007E6D1002070BD00005D
:1005E0003F000080FEE70000054A01681144142224
:1005F000B1FBF2F1890001640249C1637047000058
:10060000F8FFFDBF0000024030B590F840500124D3
:10061000AC40C56B6C60046863604368102B036872
:1006200003D099600068C26030BD9A600068C16004
:1006300030BD704710B5044601F0B4FB0849B0FB6B
:10064000F1F001F0FFFE601E00F072FD01F0AAFB68
:100650004FF47A71B0FBF1F0BDE8104001F0F2BE4A
:1006600040420F0072B6FEE70A4B30F8110001223B
:10067000D3ED000A00EE100A521C322AB8EE400AEE
:1006800070EE200AF6DD9FED041A80EE810A83EDFC
:10069000000A704738000020000048422DE9F04170
:1006A000044690F83C00884601280AD0012584F8C9
:1006B0003C502046FFF72AFF06004FF0000703D00A
:1006C00037E00220BDE8F08125642068816821F0D0
:1006D00080418160B8F1010F04D12068816841F048
:1006E000804181602068816841F00041816000F0B4
:1006F0004BFE054613E000BF00F046FE401B0A28F3
:100700000DD920688068002809DA206C20F00200EA
:1007100040F01000206484F83C700120D2E720688B
:1007200080680028E8DB206C20F0020040F0010027
:10073000206484F83C703046C4E7000070B502685D
:1007400000234FF0A04494B0A24200D1314C009459
:1007500090F83C40012C1FD0012480F83C40926866
:1007600052074CD4009A9268520748D42A4A0D681E
:1007700040F61F7445B3956890F8306025F46045E5
:1007800045EA46354E68354395600568AE6806F023
:100790000306012E06D102E0022014B070BD2D68C0
:1007A000ED0731D1009DAD6805F00305012D03D1A2
:1007B000009D2D68ED0727D10D6889680D4391686C
:1007C000A1430D4395601FE0916821F46041916061
:1007D00001688D6805F00305012D02D10968C9077C
:1007E00012D10099896801F00301012903D1009910
:1007F0000968C90708D19168A143916004E0016CC0
:1008000041F0200101640123002180F83C101846CA
:10081000C3E700000001005000030050F0B594B0A1
:100820000025009590F83C202E46012A19D001277A
:1008300080F83C7003689A6852077CD44A681F2489
:10084000052A11D2D3F830C002EB42025200944084
:100850002CEA040C0C6894404CEA040CC3F830C039
:1008600035E0022014B0F0BD0A2A0FD2D3F834C00C
:10087000521F02EB4202520094402CEA040C0C6816
:1008800094404CEA040CC3F834C020E00F2A0FD285
:10089000D3F838C00A3A02EB4202520094402CEAE4
:1008A000040C0C6894404CEA040CC3F838C00EE009
:1008B000D3F83CC00F3A02EB4202520094402CEABB
:1008C000040C0C6894404CEA040CC3F83CC0026869
:1008D000936813F00C0F4FF0070374D1D1F800E0C8
:1008E000BEF10A0F10D39469AEF10A0E0EEB4E0C56
:1008F00003FA0CFE24EA0E04D1F808E00EFA0CFE0E
:1009000044EA0E0494610FE0D2F814C00EEB4E04DA
:1009100003FA04FE2CEA0E0CD1F808E00EFA04FEED
:100920004CEA0E0CC2F814C002684C69D2F80CC034
:10093000CCF3C10C00E0E1E04FEA4C0C04FA0CF4FB
:10094000D1F810E0DFF810C2BEF1010F42D0BEF1C5
:10095000020F4DD0BEF1030F58D0BEF1040F63D08B
:10096000146E91F800C004F0F844B4EB8C6F03D11E
:10097000146E24F0004414660268546E91F800C0AE
:1009800004F0F844B4EB8C6F03D1546E24F00044AF
:1009900054660268946E91F800C004F0F844B4EB19
:1009A0008C6F03D1946E24F0004494660268D46E78
:1009B00091F800C004F0F844B4EB8C6F03D1D46E0E
:1009C00024F00044D4660268946804F00304012C07
:1009D0003AD136E0D2F860E00EEA0C0E91F800C091
:1009E00044EA8C644EEA040E4EF000441466EAE7D2
:1009F000D2F864E00EEA0C0E91F800C044EA8C6470
:100A00004EEA040E4EF000445466DCE7D2F868E08B
:100A10000EEA0C0E91F800C044EA8C644EEA040E13
:100A20004EF000449466CEE7D2F86CE00EEA0C0E6D
:100A300091F800C044EA8C644EEA040E4EF0004483
:100A4000C0E71468E4075ED1CC68012C06D052F8E8
:100A5000B03F0C78A740BB43136020E052F8B04F82
:100A600091F800C007FA0CF73C4314600A68046868
:100A70000A2A0AD3A769093A02EB420293409F432C
:100A80008B6893401F43A76109E06769521C02EB22
:100A9000420293409F438B6893401F4367610968FC
:100AA0002E4A102904D0112905D0122906D02AE097
:100AB00093681B0204E09368DB0101E093685B022A
:100AC000002B20DB03684FF0A044A34202D1244F47
:100AD000009700E000949F6807F00307012F02D100
:100AE0001F68FF070AD1009F8FB1BF6807F0030797
:100AF000012F0CD1009F3F68FF0708D0016C41F027
:100B000020010164012580F83C602846AAE61029EE
:100B100008D011291AD01229F5D1916841F4800129
:100B20009160F0E7A342EED1916841F40001916039
:100B30000C490D4A0968B1FBF2F101EB8101490052
:100B400000E0491E00910029FBD1DCE7A342DAD185
:100B5000916841F08071E3E700F0FF8300030050EB
:100B6000000100504800002040420F0070477047CD
:100B700070470000F0B54FF0000595B004002F4617
:100B80002E46009505D0206CC00648D4206C18B1C4
:100B900033E0012015B0F0BD6664E664A66484F815
:100BA0003C60204600F0D8F820688068C00024D45B
:100BB0002046FFF7ABFC0546206CC0061DD4E5B906
:100BC000206C20F4885040F0020020642068816886
:100BD00021F0405181602068816841F0805181603E
:100BE000574858490068B0FBF1F000EB8000400026
:100BF00000E0401E00900028FBD120688168C900F9
:100C000002D5806880000AD5206C20F0020040F0F8
:100C100010002064606C40F0010060640125206CCD
:100C2000C0067DD4002D7BD12068816849077ED421
:100C3000216C21F4807141F00201216442494FF09E
:100C4000A042904200D1414A0092826802F0030221
:100C5000012A02D10068C00710D1009840B1806815
:100C600000F00300012803D100980068C00705D1F7
:100C70008868626820F4403010438860D4E902102C
:100C80000843616B012902D04FF4805200E000223A
:100C9000617E42EA4132104394F820203843012A11
:100CA0000AD1A9B1216C21F0020141F02001216497
:100CB000616C41F001016164A16A012902D0E26A1C
:100CC0001143084321688A6812F00C0F08D013E022
:100CD000A18C1F4A02EB4141014341F48030EBE714
:100CE000CA6844F202039A43CA60217E94F8302015
:100CF000890341EA420108432168CA68154B1A403A
:100D00000243CA60206901282068016B21F00F01AD
:100D100002D1E269521E114301636664206C00E057
:100D200005E020F0020040F00100206406E0206CA5
:100D300020F0020040F0100020640125284629E739
:100D40004800002040420F00000300500001005006
:100D50000000FEFF07C0F0FF70B586B00546142105
:100D60006846FFF7F8FA2868B0F1A04F32D11A4967
:100D7000486940F080504861486900F08050059013
:100D8000486940F4003048614869002600F40030AA
:100D900005900B2000900320CDE9010669464FF035
:100DA000904000F0D7F90E4C0C48C4E900068020B2
:100DB000C4E9026040002061800060612020A061E1
:100DC0000002E061204600F053F908B1FFF74AFC49
:100DD000AC63656206B070BD0010024008000240BE
:100DE000C00100202DE9F04704460068904689467E
:100DF000806840076ED494F83C0001280CD0012094
:100E00004FF0A04684F83C00D6F808034FF00007E6
:100E1000C00604D0012507E00220BDE8F087204687
:100E2000FFF7AAFB050002D084F83C7053E0206C69
:100E300040F60161884340F480702064D6F80803CE
:100E4000C00602D02068B04206D1206C20F4801089
:100E500020642068C06807E0216C41F4801121649F
:100E60001E49884208D1F068800105D5206C20F425
:100E7000005040F480502064206CC00404D5606CA5
:100E800020F00600606400E0676484F83C70A16BA9
:100E900013488862A16B1348C862A16B12480863AB
:100EA00021681C2008602068416841F01001416001
:100EB0002068C16841F00101C160216843464A468B
:100EC0004031A06B00F0FBF82068816841F004011C
:100ED000816000E0022528469FE7000000010050E5
:100EE000AD04000807050008F104000870B504000F
:100EF00003D094F8200010B104E0012070BD20461A
:100F000000F082F82068016841F00101016000F002
:100F10003BFA0546052604E000F036FA401B0A2895
:100F200011D820684068C007F6D02068016821F019
:100F30000201016000F028FA05460BE000F024FAF7
:100F4000401B0A2806D9606A40F40030606284F8C9
:100F50002060D2E7206840688007EFD4207E012817
:100F6000206801683DD021F080010160607E012889
:100F70002068016838D021F040010160A07E01287E
:100F80002068016833D021F020010160E07E012853
:100F9000206801682ED041F010010160207F0128F7
:100FA0002068016829D021F008010160607F0128D4
:100FB0002068016824D021F004010160D4E9020115
:100FC0000843D4E90412114308436168491E0843E9
:100FD0002168C86100206062012084F820000020A0
:100FE00070BD41F08001C0E741F04001C5E741F02C
:100FF0002001CAE721F01001CFE741F00801D4E752
:1010000041F00401D9E7000010B586B00446142170
:101010006846FFF7A0F91349206888421FD112489B
:10102000C16941F00071C161C16901F000710591B0
:10103000416941F4802141614069694600F48020A2
:1010400005904FF440700090022001900020029023
:101050000320039009200490044800F07BF806B0B8
:1010600010BD000000640040001002400004004871
:1010700070B5040021D0022084F821002268116894
:1010800043F6F0708143D4E901031843D4E90335F2
:101090002B43184363691843A3691843E369184352
:1010A000084310602046FFF79FFA0020A06301214B
:1010B00084F8211084F8200070BD012070BD70B547
:1010C000044690F82000002501280CD0012084F867
:1010D000200094F821600020012E06D084F8200022
:1010E0000225284670BD022070BD022684F82160CA
:1010F000A0632068066826F0010606602046FFF718
:1011000083FAE06A00282068016802D041F00E01ED
:1011100006E041F00A0101602068016821F0040145
:1011200001602068016841F001010160D9E7000019
:1011300070B5044600F028F90546601C02D004484A
:101140000078044400F020F9401BA042FAD370BD9F
:101150003C0000202DE9F04FDFF80092002309F158
:10116000040A012603250AF1040B85B00F270BF1B1
:10117000040EEAE006FA03F422407CD091F804C0A1
:101180000CF0030CBCF1010F02D0BCF1020F26D110
:10119000D0F808C0CDF800C04FEA430C05FA0CF8AF
:1011A000CDF810C0DDF800C02CEA080CCDF800C066
:1011B000D1F80C80DDF810C008FA0CF8DDF800C09A
:1011C00048EA0C08C0F80880D0F804C02CEA040CE7
:1011D0000C79C4F300149C4044EA0C0444600C797C
:1011E000E443A4070DD0D0F80CC04FEA430805FA39
:1011F00008F42CEA040C8C6804FA08F444EA0C04A1
:10120000C4600C7904F00304022C19D1DC0800EB53
:1012100084040294246A4FEA437C4FEADC6CCDF8E4
:1012200010C007FA0CFC24EA0C04D1F81080DDF899
:1012300010C008FA0CF848EA0408029CC4F82080A0
:1012400004684FEA430805FA08FC24EA0C0491F804
:1012500004C00CF0030C0CFA08FC4CEA040CC0F8B7
:1012600000C04C6814F4403F6ED03D4CD4F818C018
:101270004CF0010C00E067E0C4F818C0A46923F04A
:10128000030C04F001040094364C64440294A468F6
:101290004FEA837C4FEA1C7807FA08FC24EA0C0426
:1012A000B0F1904F06D0DFF8C0C0604505D14FF0D7
:1012B000010C12E04FF0000C0FE0DFF8B0C0604509
:1012C00002D14FF0020C08E0DFF8A4C0604502D163
:1012D0004FF0030C01E04FF0050C0CFA08FC4CEA4F
:1012E000040C029CC4F808C0D9F80040CC46D1F8E0
:1012F000048094435FEAC83800D51443CCF800401A
:10130000DAF80040D446D1F8048094435FEA883884
:1013100000D51443CCF80040DBF80040DC46D1F89F
:10132000048094435FEAC82800D51443CCF80040F9
:10133000DEF80040F446D1F8048094435FEA882840
:1013400000D51443CCF800405B1C0A6832FA03F461
:101350007FF410AF05B0BDE8F08F0000000401403D
:10136000001002400000014000040048000800484E
:10137000000C00480069084000D0012070470AB105
:101380008161704781627047014880687047000042
:101390003C000020F0B590F8C130022B27D090F827
:1013A000C030012B23D0012580F8C050022380F8E3
:1013B000C1300468D4F880330026012919D00229ED
:1013C00021D004292BD0082935D0072180F8C1105D
:1013D00080F8C06090F8C110072938D00168C1F8C2
:1013E000803380F8C15080F8C0600020F0BD02203A
:1013F000F0BD23F4E021136803F4E0230B435168AC
:10140000C4F8BC13E6E723F4601113684FF46017C7
:1014100007EAC3030B435168C4F8C013DAE723F0AB
:10142000E07113684FF0E07707EA83130B435168CC
:10143000C4F8C413CEE723F0606113684FF060670F
:1014400007EA43230B435168C4F8C813C2E70120DD
:10145000F0BD10B590F8C020012A21D0012280F8FB
:10146000C020022380F8C1304B1C1BD00368D3F886
:10147000CC4344F00204C3F8CC430368D3F8CC4314
:1014800024F00C040C43C3F8CC430168D1F8CC33EE
:1014900043F00103C1F8CC3380F8C120002010BD17
:1014A000022010BD0168D1F8CC3323F00203C1F84B
:1014B000CC33EAE770B590F8C130022B3CD090F8FD
:1014C000C030012B38D0012500F8C05F02234370E3
:1014D0001388948803F4E053C4F308041C4313896D
:1014E0006FF07E4603F400732343148A04F48044AF
:1014F0001C43938903F400432343948A06EA04447B
:101500001C43936903F000732343146AD26904F007
:1015100080441C4302F00042224350F8C03CB824EF
:1015200004EBC1141959054E31401143195145704E
:1015300000210170084670BD022070BD0020003CF3
:1015400038B5040054D0022084F8C1000025C4F846
:10155000C450C4F8C850C4F8CC50C4F8D050C4F833
:10156000D450C4F8D850207AC0071BD02149206835
:10157000884208D12048816941F000518161806929
:1015800000F0005000902168086820F44042208A52
:1015900000F44040104320F44052A08A00F4405030
:1015A00010430860204600F029F8207A800708D50B
:1015B0002168086820F44072A08900F4407010434C
:1015C0000860012084F8C10084F8C0505FF0000179
:1015D000C1EBC10004EB8000491C8561C561056257
:1015E00045628562C9B205630529F1D9002038BD7D
:1015F000012038BD007401400010024008B50068A9
:101600000649884208D10648816941F0005181614C
:10161000806900F00050009008BD00000074014097
:101620000010024010B586B0044614216846FEF74B
:1016300092FE0F492068884218D10E48416941F452
:10164000003141614069694600F4003005904FF473
:10165000706000900220019000200290032003900F
:101660000D2004904FF09040FFF774FD06B010BDC0
:10167000007401400010024070B50D460446FFF7AB
:1016800083FE064607E0681C05D0FFF77DFE801B41
:10169000A8420DD865B12068D0F88803C043C003C4
:1016A000F1D4012084F8C100002084F8C00070BD8E
:1016B000072084F8C100032070BD70B590F8C130D8
:1016C000022B23D0022380F8C130052920D08023AB
:1016D000046803EBC115635923F00706936833438D
:1016E00023F01806D368334363519425046805EB4F
:1016F000C115136863519824036804EBC111526843
:101700005A50012180F8C110002070BD022070BD28
:101710000368196821F007049168214321F0180437
:10172000D1682143196003681168596151680268E2
:101730009161E6E72DE9F04F90F8C140022C25D0E9
:1017400090F8C040012C21D04FF0010980F8C090E2
:10175000022480F8C14000274FF0070C052918D05B
:101760009C2404EBC116012A39D08024A8254FF40B
:10177000005A4FF4405B05EBC11504EBC114022A7B
:101780002FD0042A45D0082A0BD144E00220BDE81E
:10179000F08F012A0AD0022A0CD0042A0ED0082A7F
:1017A00010D080F8C1C080F8C0700EE002681968DF
:1017B000D1610AE002681968516206E0026819689E
:1017C000916202E002681968D16290F8C11007299D
:1017D00048D080F8C19080F8C0700020D7E7196821
:1017E00035E04FF0A408D0F800C008EBC1111A682A
:1017F0004CF801205968002901680A5922F4405226
:101800002ED00A5101680A59D3F804C042EA0C02EA
:1018100018E0196821E04FF0AC08D0F800C008EBE0
:10182000C1111A684CF801205968002901680A5949
:1018300022F4404214D00A5101680A59D3F804C076
:1018400042EA8C020A515968514503D199680268ED
:101850009151BAE75945B8D1996802685151B4E736
:101860000A51B2E7012092E710B590F8C020012A92
:101870000ED0012200F8C02F0223437050F8C03C64
:101880001C680C431C60427000210170084610BDAA
:10189000022010BD70B5044690F8C100022811D096
:1018A00094F8C00001280ED0012584F8C050022011
:1018B00084F8C100204600F0F2FF84F8C1500020F7
:1018C00084F8C00070BD022070BD10B590F8C02033
:1018D000012A10D0012200F8C02F0223437050F8D3
:1018E000C03CD3F894430C43C3F8944342700021A6
:1018F0000170084610BD022010BD2DE9F0410546DB
:1019000090F8C10014460E46022825D095F8C00074
:10191000012823D0012785F8C070022085F8C10076
:10192000052E1DD0284601F021F8C6EBC60005EBB8
:1019300080002168016261684162A1688162E1689A
:10194000C162216901633146284600F07BFF85F8BA
:10195000C170002085F8C000BDE8F0810220FBE7DF
:1019600028680168D0F8A02321F020036169194399
:1019700021F40063A169194321F48063E1691943EB
:1019800021F0C063216A194321F00063616A1943A1
:10199000A36A21F0404141EA830121F00053216B09
:1019A000194322F48033E26A01601A432868C0F8C0
:1019B000A023BAE702488168027811448160704729
:1019C0003C000020074810B5016841F0100101609B
:1019D000032000F06DF80F2000F006F800F024F866
:1019E000002010BD0020024070B50D4D04464FF49C
:1019F0007A712878B1FBF0F00A490968B1FBF0F080
:101A000000F020FD48B9102C07D200222146501EBC
:101A100000F02EF800206C6070BD012070BD000049
:101A20003C00002048000020094808B5816941F0C9
:101A300001018161816901F001010091C16941F0F9
:101A40008051C161C06900F08050009008BD000065
:101A500000100240002809DB00F01F020121914024
:101A60004009800000F1E020C0F80011704700003C
:101A7000F0B40E4B1B680C46C3F30223C3F10705F9
:101A8000042D00D90425191D072901D2002300E0E7
:101A9000DB1E012606FA05F1491E214099409E40B1
:101AA000761E16403143F0BC01F024BF0CED00E07F
:101AB000064900F0070208684FF6FF03184040EAA5
:101AC0000220034A10430860704700000CED00E05C
:101AD0000000FA052DE9F84F0446006800265C4D29
:101AE000C0036ED5E869C00008D4E86940F08050B2
:101AF000E861E869012600F08050009055480168CF
:101B0000C90512D40168804641F480710160FFF775
:101B10003BFC074605E000BFFFF736FCC01B64280E
:101B200035D8D8F80000C005F6D5286A10F4407002
:101B300053D0A18801F4407181424ED0286A4FF4FD
:101B4000803191FAA1F2B2FA82F29700424A4FF044
:101B50000108174420F44070C7F8008491FAA1F1FD
:101B6000B1FA81F102EB81010023C1F8003428624F
:101B7000C00732D0FFF708FC074641F2883A4FF021
:101B8000020907E0FFF700FCC11B514502D9032001
:101B9000BDE8F88F99FAA9F1B1FA81F141F040015D
:101BA0004846B8EB511F01D129680CE090FAA0F12A
:101BB000B1FA81F141F04001B0EB511F02D1296A25
:101BC00001E015E0696A99FAA9F0B0FA80F000F036
:101BD0001F0008FA00F21142D4D0286A616820F48C
:101BE0004070084328621EB1E86920F08050E86127
:101BF0002078C00705D0286BA16820F003000843B7
:101C000028632078800605D5286BE16820F0100055
:101C1000084328632078000605D5E86A216920F486
:101C2000F8700843E8622088C00405D5286B616914
:101C300020F48070084328632088400405D5286B71
:101C4000A16920F48050084328630020A0E7000029
:101C50000010024000700040000042422DE9F047B1
:101C60000F46050069D04A4E306800F00700B842C0
:101C700009D2306820F0070038433060306800F047
:101C80000700B84259D12878424C800705D56068D2
:101C9000A96820F0F000084360602878C0073DD0B4
:101CA0006968012001290DD0022923D05FF00203C9
:101CB00093FAA3F2B2FA82F242F02002520904D05F
:101CC000226803E04FF40033F2E7626A93FAA3F369
:101CD000B3FA83F303F01F03984002422DD06068EB
:101CE00020F0030008436060FFF74EFB804641F29E
:101CF00088390CE04FF00073DAE700BFFFF744FBD0
:101D0000A0EB0801494502D90320BDE8F0876068CF
:101D1000696800F00C00B0EB810FEFD1306800F083
:101D20000700B8420BD9306820F007003843306014
:101D3000306800F00700B84201D00120E5E72878BC
:101D4000400705D56068E96820F4E06008436060FA
:101D50002878000706D56068296920F4605040EAB9
:101D6000C100606000F054F86168F02292FAA2F2BB
:101D700001F0F001B2FA82F2D140074A515CC8404A
:101D80000649086006480068FFF72EFE0020BCE701
:101D90000020024000100240CE4900084800002008
:101DA0004000002001480068704700004800002003
:101DB00008480949006849684FF4E06292FAA2F2C3
:101DC00001F4E061B2FA82F2D140044A515CC840A9
:101DD000704700004800002000100240DE49000863
:101DE00008480949006849684FF4605292FAA2F223
:101DF00001F46051B2FA82F2D140044A515CC84009
:101E0000704700004800002000100240DE49000832
:101E1000164A10B55168164801F00C03042B20D067
:101E2000082B1ED14FF4701494FAA4F401F470132B
:101E3000B4FA84F4E3400F4CD26AE45C0F2393FAC3
:101E4000A3F302F00F02B3FA83F3DA40094B103325
:101E5000C9039A5C06D500231946FEF705FAA0FBD4
:101E6000040110BD0448A4FB000110BD0010024095
:101E700000127A00AE49000800093D002DE9F84F34
:101E8000050071D02878FC4EC0074FF0010425D022
:101E900070686704C0F38100012807D07068C0F340
:101EA000810002281BD17068C00318D597FAA7F0EB
:101EB000B0FA80F040F02000400901D0306800E026
:101EC000706A97FAA7F1B1FA81F101F01F0104FAE3
:101ED00001F1084265D068680028D2D061E06868E6
:101EE000B0F5803F0BD010B1B0F5A02F17D03068FF
:101EF00020F480303060306820F4802002E03068C8
:101F000040F480303060F06AA96820F00F00084388
:101F1000F062686820B3FFF737FA80460AE030685D
:101F200040F480203060EAE7FFF72EFAA0EB0800CB
:101F3000642871D897FAA7F0B0FA80F040F020003A
:101F4000400901D0306800E0706A97FAA7F1B1FA51
:101F500081F101F01F0104FA01F10842E4D020E010
:101F6000FFF712FA804607E0C2E000BFFFF70CFA65
:101F7000A0EB08006428DCD897FAA7F0B0FA80F04C
:101F800040F02000400901D0306800E0706A97FA04
:101F9000A7F1B1FA81F101F01F0104FA01F1084241
:101FA000E4D12878DFF8D48280074FF0000A4FF0A0
:101FB000020730D570684FF0F80B10F00C0F07D007
:101FC0007068C0F38100022827D17068C00324D450
:101FD00097FAA7F0B0FA80F040F02000400901D055
:101FE000306800E0706A97FAA7F1B1FA81F101F068
:101FF0001F0104FA01F1084202D02869012877D1B3
:1020000030689BFAABF220F0F8016869B2FA82F20C
:102010009040014331605AE064E1286988B394FA42
:10202000A4F0B0FA80F048F82040FFF7ADF98146FF
:1020300006E000BFFFF7A8F9A0EB090002289AD834
:1020400097FAA7F0B0FA80F040F02000400901D0E4
:10205000306800E0706A97FAA7F1B1FA81F101F0F7
:102060001F0104FA01F10842E4D030689BFAABF298
:102070006969B2FA82F220F0F800914008433060BA
:1020800025E0FFE794FAA4F0B0FA80F048F820A029
:10209000FFF77AF9814605E0FFF776F9A0EB090032
:1020A0000228CCD897FAA7F0B0FA80F040F02000D0
:1020B000400901D0306800E0706A97FAA7F1B1FAE0
:1020C00081F101F01F0104FA01F10842E4D12878FE
:1020D00000076CD5A869A8B394FAA4F0B0FA80F010
:1020E00008EB8000C0F88044FFF74EF9814607E016
:1020F000A4E100BFFFF748F9A0EB090002289ED831
:1021000097FAA7F0B0FA80F040F06000B4EB501FEF
:1021100001D130680BE097FAA7F0B0FA80F040F0F8
:102120006000B7EB501F01D1306A00E0706A97FA87
:10213000A7F1B1FA81F101F01F0104FA01F2104296
:10214000D8D034E0FFE794FAA4F1B1FA81F108EBBA
:102150008101C1F880A4FFF717F9814606E000BFAE
:10216000FFF712F9A0EB090002289AD897FAA7F016
:10217000B0FA80F040F06000B4EB501F01D130683D
:102180000BE097FAA7F0B0FA80F040F06000B7EBF0
:10219000501F01D1306A00E0706A97FAA7F1B1FAD6
:1021A00081F101F01F0104FA01F21042D8D1287820
:1021B000400768D5F0694FF00009C00009D4F06904
:1021C00040F08050F061F0694FF0010900F080505C
:1021D00000902B480168C90512D4016841F4807150
:1021E0000160FFF7D1F8834606E000BFFFF7CCF8A7
:1021F000A0EB0B00642875D821480068C005F5D510
:10220000E86801280AD008B1052811D0306A20F00A
:1022100001003062306A20F0040002E0306A40F0D1
:1022200001003062E86868B3FFF7AEF883460DE05E
:10223000306A40F004003062F0E700BFFFF7A4F816
:10224000A0EB0B0141F2883081424BD897FAA7F0FE
:10225000B0FA80F040F04000B4EB501F01D130687C
:1022600013E097FAA7F0B0FA80F040F04000B7EB27
:10227000501F09D1306A08E00010024000004242BD
:10228000007000400CE040E0706A97FAA7F1B1FAE4
:1022900081F101F01F0104FA01F21042CED02DE0CD
:1022A000FFF772F8834607E0FFF76EF8A0EB0B012B
:1022B00041F28830814215D897FAA7F0B0FA80F041
:1022C00040F04000B4EB501F01D130680CE097FAA9
:1022D000A7F0B0FA80F040F04000B7EB501F02D1F9
:1022E000306A01E083E0706A97FAA7F1B1FA81F1F0
:1022F00001F01F0104FA01F21042D5D1B9F1000F2B
:1023000003D0F06920F08050F061E86980B3716813
:10231000C1F38101022977D04FF080714F0002286C
:10232000504609D091FAA1F1B1FA81F148F82100A3
:10233000FFF72AF805465DE0894691FAA1F1B1FA66
:1023400081F1C24648F82100FFF71EF8804605E0FB
:10235000FFF71AF8A0EB0800022848D897FAA7F070
:10236000B0FA80F040F02000400902D0306801E06F
:1023700066E0706A97FAA7F1B1FA81F101F01F01E6
:1023800004FA01F10842E3D1D5E908100843716865
:1023900021F474110843706099FAA9F0B0FA80F042
:1023A0004AF82040FEF7F0FF054604E0FEF7ECFF98
:1023B000401B02281BD897FAA7F0B0FA80F040F033
:1023C0002000400901D0306800E0706A97FAA7F158
:1023D000B1FA81F101F01F0104FA01F10842E5D0E0
:1023E0002EE000BFFEF7D0FF401B022802D90320D9
:1023F000BDE8F88F97FAA7F0B0FA80F040F020001F
:10240000400902D0306801E00BE0706A97FAA7F14A
:10241000B1FA81F101F01F0104FA01F10842E1D1A2
:102420000EE00128E4D070682A6A00F480319142FD
:1024300004D1696A00F47010884201D00120D7E706
:102440000020D5E710B5401EB0F1807F01D30120F8
:1024500010BD4FF0E02460610F21601701F04AFACF
:102460000020A06107202061002010BD7047704748
:1024700070470000F0B590F83C20012A2CD00124D0
:1024800080F83C40022280F83D2003685A689D682D
:10249000124EB34203D122F470074A683A4322F045
:1024A00070070A683A435A600268B24208D0B2F133
:1024B000804F05D00A4B9A4202D00A4B9A4204D16F
:1024C000896825F080031943916080F83D40002120
:1024D00080F83C100846F0BD0220F0BD002C014001
:1024E000000400400040014010B5040003D094F8FF
:1024F0003D0010B107E0012010BD002084F83C0031
:10250000204600F023F8022084F83D00211D2068B9
:1025100001F014F8012084F8480084F83E0084F8A3
:102520003F0084F8400084F8410084F8420084F8B9
:10253000430084F8440084F8450084F8460084F899
:10254000470084F83D00002010BD000008B5006879
:102550000B49884212D10B48C16941F01001C16199
:10256000C069002200F01000009011463620FFF7ED
:102570007FFABDE808403620FFF76CBA08BD0000BE
:10258000001000400010024090F83D10012901D0D9
:1025900001207047022180F83D100168CA6842F0AE
:1025A0000102CA6000680D49884208D0B0F1804F2E
:1025B00005D00B49884202D00A49884207D1816878
:1025C000094A1140062906D0B1F5803F03D00168C1
:1025D00041F001010160002070470000002C014023
:1025E000000400400040014007000100704770B542
:1025F0000446006801694FF00005C943890715D4F6
:10260000C168C943890711D4E91E016101202077FF
:10261000206880698007204602D0FFF7E7FF04E0CA
:1026200000F0A7F8204600F0A5F82577206801699A
:10263000C943490717D4C168C943490713D46FF088
:1026400004010161022020772068806910F4407F36
:10265000204602D0FFF7CAFF04E000F08AF82046C7
:1026600000F088F8257720680169C943090716D466
:10267000C168C943090712D46FF008010161042041
:1026800020772068C0698007204602D0FFF7AEFFA0
:1026900004E000F06EF8204600F06CF82577206822
:1026A0000169C943C90617D4C168C943C90613D40F
:1026B0006FF010010161082020772068C06910F4D4
:1026C000407F204602D0FFF791FF04E000F051F870
:1026D000204600F04FF8257720680169C943C907F3
:1026E00008D1C168C943C90704D1891E01612046C8
:1026F00000F041F820680169C943090609D4C1689E
:10270000C943090605D46FF0800101612046FFF737
:10271000AEFE20680169C943C90509D4C168C9432F
:10272000090605D46FF4807101612046FFF79EFE13
:1027300020680169C943490609D4C168C9434906EB
:1027400005D46FF040010161204600F015F82068C3
:102750000169C94389060BD4C168C943890607D4F6
:102760006FF0200101612046BDE87040FFF780BE98
:1027700070BD704770477047704710B5040002D0B5
:10278000A06F10B107E0012010BD002084F8740094
:10279000204600F025F82420A0672068016821F079
:1027A00001010160204600F09FFF0128ECD0606A23
:1027B00010B1204600F006FF2068416821F49041E6
:1027C00041602068816821F02A01816020680168E9
:1027D00041F0010101602046BDE8104000F056BF05
:1027E00010B586B0044614216846FDF7B4FD1249C1
:1027F000206888421ED11148816941F4804181617D
:10280000816901F480410591416941F48021416170
:102810004069694600F480200590C02000900220A5
:1028200001900020029003200390072004900448A8
:10283000FEF790FC06B010BD0038014000100240C9
:1028400000040048062911D2DFE801F00911171D24
:1028500023030068D0F8841341F0010104E000680C
:10286000D0F8841341F00201C0F884137047006867
:10287000D0F8841341F00401F6E70068D0F884131F
:1028800041F00801F0E70068D0F8841341F010012E
:10289000EAE70068D0F8841341F02001E4E7F0B5DE
:1028A0000024E425076805EBC11657F806C0B825D3
:1028B00005EBC1157D59202A27D00CDC042A15D040
:1028C00004DC012A12D0022A2BD11EE0082A1CD0D7
:1028D000102A26D10AE0402A08D0802A15D0B2F565
:1028E000807F03D0B2F5007F1BD10EE04FF0BC0E0D
:1028F0000EEBC11E5A6847F80E204FF0C00E076855
:102900000EEBC1119A687A500BE0C42404EBC11499
:102910005A683A51C827046807EBC1119A68625097
:102920001024FE21A1401A682CEA010CA240D968AB
:1029300042EA0C02A14011431A69D3F814C01746A9
:10294000A2400A430CFA04FC99694CEA020CA1402B
:1029500041EA0C01082F06D1AA0504D4AA0102D429
:10296000DA69A240114300688151F0BD2DE9F04FB2
:102970008024036804EBC1169C5924F070449C51D8
:1029800003689A469D59E82404EBC114A64653F8FF
:102990000490E42404EBC114A3461C59D3F8A033DB
:1029A00025F0200755693D4325F4006795693D43AF
:1029B00025F48067D5693D4325F0C067156A3D431E
:1029C00025F00067556A3D4325F07047956A3D4301
:1029D000176B25F40035B7F1005F01D145F40035E0
:1029E00025F04007556BD2F848802F4327F4802C00
:1029F000176D47EA0C0727F0FC7748EA070892F8BA
:102A0000387029F01F0C07F01F0747EA0C0727F062
:102A1000004CD76B47EA0C0725B924F4807C146C72
:102A200044EA0C04D2F844C0BCF5606F02D0BCF597
:102A3000F05F01D1402D03D124F4F0544CEA04049A
:102A4000D56C052921D2DFE801F003090F151B0021
:102A5000D26A23F4003343EA420316E0D26A23F435
:102A6000802343EA820310E0D26A23F4002343EA7E
:102A7000C2030AE0D26A23F4801343EA021304E09B
:102A8000D26A23F4001343EA42134AF80680066828
:102A900046F80E70066846F80B40D424026804EB32
:102AA000C11155500068C0F8A033BDE8F08FFEE7B3
:102AB00070B58AB0002406940794182168460894DB
:102AC000FDF749FC25484FF0A041012501604FF476
:102AD00040310561C0E90114447680F82040A90224
:102AE000C1620326C6614FF4E071C460816280F860
:102AF00030500821416104764463FEF73BF808B189
:102B0000FDF7B0FD06A915480694FDF717FE08B1BC
:102B1000FDF7A8FD009501950425CDE90254049424
:102B200069460E480594FDF779FE08B1FDF79AFD58
:102B300002200090019069460848FDF76FFE08B139
:102B4000FDF790FDCDE9005669460448FDF766FEA5
:102B5000002801D0FDF786FD0AB070BD700100208D
:102B60000E4810B50C4901600921416000214FF465
:102B700080328160C0E9031241610176417681763D
:102B8000C17601774177FEF7B1F9002803D0BDE89F
:102B90001040FDF767BD10BD006400400402002036
:102BA000054808B5416941F001014161406900F003
:102BB0000100009008BD000000100240F0B587B091
:102BC00014216846FDF7C7FB2248416941F4002102
:102BD0004161416901F400210591416941F480019D
:102BE0004161416901F480010591416941F400317D
:102BF0004161416901F400310591416941F480214D
:102C000041614069144E00F480204FF40054059057
:102C1000002221463046FEF7B2FB104F002206216B
:102C20003846FEF7ACFB0125CDE9004500240294AF
:102C3000694630460394FEF78DFA0620CDE900057B
:102C40000320CDE9024069463846FEF783FA07B013
:102C5000F0BD0000001002400008004800040048D9
:102C600030B5AFB000242E942D9429942A942B943F
:102C7000542168462C94FDF76EFB2694279424215A
:102C80001DA82894FDF767FB202115A8FDF763FB1D
:102C900083488249C0E900148460FEF751FC08B102
:102CA000FDF7E0FC0C217E48FEF7D3FB08B1FDF7F1
:102CB000D9FC0A217A48FEF7DFFC08B1FDF7D2FC07
:102CC0000420CDE92D402DAA01217548FEF762FBB5
:102CD00008B1FDF7C7FC4FF4F040CDE92904082006
:102CE000CDE92B4029AA05216D48FEF7E6FC08B185
:102CF000FDF7B8FC0094019401200294CDE9034053
:102D0000059406940794089409940A940B946A46CF
:102D1000052163480C94FEF7F0FD08B1FDF7A2FC15
:102D200043F29030269026AB012205215C48FEF745
:102D300001FD08B1FDF796FC43F2B060269026AB8A
:102D4000022205215648FEF7F5FC08B1FDF78AFC82
:102D50004FF41650269026AB042205215048FEF76A
:102D6000E9FC08B1FDF77EFC44F2C040269026AB9A
:102D7000082205214A48FEF7DDFC08B1FDF772FC88
:102D800029AA00214648FEF798FC08B1FDF76AFC25
:102D90004FF48075009401940D940E94CDE90F4585
:102DA0002804CDE9114013946A4600213C4814944C
:102DB000FEF7A3FD08B1FDF755FC6A46012138482E
:102DC000FEF79BFD08B1FDF74DFC44F6B070269070
:102DD00026AB042200213248FEF7ACFC08B1FDF717
:102DE00041FC6420CDE91D401F942094CDE9214091
:102DF000239424941DAA002129482594FEF75AFB08
:102E000008B1FDF72FFC1DAA01212548FEF752FB52
:102E100008B1FDF727FC4FF40070CDE91545CDE969
:102E2000170419941A941B9415AB012200211C4815
:102E30001C94FEF72FFD08B1FDF714FC4FF48060E1
:102E400016904000179015AB042201211448FEF79C
:102E500021FD08B1FDF706FC169415AB02220021F6
:102E60000F481794FEF716FD08B1FDF7FBFB15ABF5
:102E7000082201210A48FEF70DFD08B1FDF7F2FB1B
:102E800029AA01210648FEF718FC08B1FDF7EAFB64
:102E90000348FEF7C7FB2FB030BD000000740140AF
:102EA0002C0200203EB500240E48009401940C49E9
:102EB000029401604721C0E9011463218461C1606B
:102EC000FFF712FB08B1FDF7CDFB009469460548FA
:102ED0000294FFF7CFFA002801D0FDF7C3FB3EBDF7
:102EE00000100040080300200D4810B50B49016098
:102EF0004FF4E1314160002181600C22C160C0E9E2
:102F000004128161C16101624162FFF736FC002851
:102F100003D0BDE81040FDF7A5BB10BD003801404F
:102F2000D4030020FEE7FEE770B506465FF000041C
:102F300004F1B000C0B2002100F08BF90021102094
:102F400000F087F90021084600F083F900254021B0
:102F5000304600F07EF96D1CEDB2802DF7D3641C75
:102F6000E4B2082CE4D370BD10B500F0C3F9C8205A
:102F7000FEF7DEF80021AE2000F06BF900212020E2
:102F800000F067F90021102000F063F900210846E5
:102F900000F05FF90021102000F05BF900214020D3
:102FA00000F057F90021B02000F053F900218120F2
:102FB00000F04FF90021FF2000F04BF90021C8205C
:102FC00000F047F90021A12000F043F90021A620DC
:102FD00000F03FF90021A82000F03BF900213F203C
:102FE00000F037F90021D32000F033F90021084622
:102FF00000F02FF90021D52000F02BF900218020CE
:1030000000F027F90021D82000F023F90021052045
:1030100000F01FF90021D92000F01BF90021F12058
:1030200000F017F90021DA2000F013F90021122036
:1030300000F00FF90021DB2000F00BF90021302017
:1030400000F007F900218D2000F003F90021142081
:1030500000F0FFF80021A42000F0FBF80021A620DA
:1030600000F0F7F80021AF2000F0F3F80020FFF7A0
:103070005BFFBDE810406420FEF75AB82DE9F04729
:103080001F4616460C468046DDF820900FE021468C
:10309000404600F010F8454605E04021484600F063
:1030A000D8F86D1CEDB2B542F7D3641CE4B2BC4253
:1030B000EDD9BDE8F08710B50446B031C8B20021A3
:1030C00000F0C7F8102040EA1410002100F0C1F809
:1030D00004F00F00BDE8104040F00100002100F0B6
:1030E000B8B800002DE9F0411E4615460F4680464F
:1030F000FFF7E1FF1248002400EB8515285D0EB1B3
:10310000C043C0B2402100F0A4F8641CE4B2102C0B
:10311000F4D37F1CF9B24046FFF7CDFF5FF0000407
:1031200005EB040090F820000EB1C043C0B240216E
:1031300000F08FF8641CE4B2102CF1D3BDE8F081EC
:10314000E64900082DE9F047203A089E0F468046E0
:10315000D5B27F2803D900208F1C8046FFB2012BF7
:103160002ED0022B2AD13946FFF7A5FFDFF87C903D
:10317000002400BF04EB051119F801000EB1C04393
:10318000C0B2402100F065F8641CE4B2082CF1D311
:103190007F1CF9B24046FFF78EFF00244FEA090773
:1031A00004EB05103844007A0EB1C043C0B2402190
:1031B00000F04FF8641CE4B2082CF1D3BDE8F087AE
:1031C0003946FFF778FF0A4F002405EB450500BF9D
:1031D00004EB4500385C0EB1C043C0B2402100F0A2
:1031E00038F8641CE4B2062CF2D3E7E74E4E000830
:1031F000264C00082DE9F8431E461746894604462A
:103200000025DDF8208019E0334649462046CDF8F8
:103210000080FFF797FF012E02D0022E02D003E0BC
:10322000A41D00E00834E4B27A2C01D9012E0AD0A2
:10323000782C01D9022E06D06D1CEDB27A5D002AE1
:10324000E2D1BDE8F88309F10100002400F0FF0994
:10325000F2E770B50C46054600F07CF8782000F0E7
:10326000EBF800F0BBF808B100F09AF8204600F047
:10327000E3F800F0B3F808B100F092F8284600F047
:10328000DBF800F0ABF808B100F08AF8BDE8704058
:1032900000F086B87047000000B585B0142168467C
:1032A000FDF759F8022000900020019002900320C1
:1032B000039069460248FDF74DFF05B000BD0000D0
:1032C0000004004800B585B014216846FDF743F8B6
:1032D0000220009001200190002002900320039022
:1032E00069460248FDF736FF05B000BD00040048FE
:1032F00070470000154810B5416986B041F480213F
:1033000041614069142100F4802000906846FDF777
:1033100022F8042000900120019000200290032058
:103320000B4C039069462046FDF714FFFFF7CAFFD8
:10333000012204212046FEF722F806B02046012291
:10334000BDE810400221FEF71AB80000001002404C
:103350000004004810B5FFF7B5FF104C0122022110
:103360002046FEF70CF8012204212046FEF707F85C
:103370000520FDF75FF9002202212046FDF7FFFF3F
:103380000520FDF757F9002204212046FDF7F7FF3D
:10339000BDE810400220FDF74DB9000000040048D0
:1033A00010B5FFF78FFF0C4C012204212046FDF7DA
:1033B000E6FF002202212046FDF7E1FF0520FDF790
:1033C00039F9012202212046FDF7D9FFBDE810405E
:1033D0000220FDF72FB900000004004870B500245A
:1033E000FFF75AFF134D012202212846FDF7C7FFC0
:1033F000012204212846FDF7C2FF07E0641CE4B265
:10340000FA2C03D9FFF7CCFF012070BD022128461A
:10341000FDF7B0FF0028F1D10420FDF70BF90022E1
:1034200004212846FDF7ABFF0520FDF703F9002036
:1034300070BD00000004004870B50546FFF742FF6C
:10344000124E002204213046FDF799FF0024EA09BC
:1034500002213046FDF793FF6806050E0420FDF7B4
:10346000E9F8012204213046FDF789FF0520FDF728
:10347000E1F8002204213046FDF781FF0520FDF729
:10348000D9F8641CE4B2082CE1D370BD00040048F4
:10349000FEF790BA30B597B028216846FCF75BFF7D
:1034A00014210AA8FCF757FF1C210FA8FCF753FFB3
:1034B00001210804CDE900100024029402250491A2
:1034C000CDE907504FF4E01009906846FEF7D6FCAE
:1034D00008B172B6FEE70F20CDE90A054FF480600F
:1034E000CDE90C4002210AA80E94FEF7B7FB08B103
:1034F00072B6FEE744F201000F908010159011940F
:103500000FA8FEF7E7FA002801D072B6FEE717B061
:1035100030BD00000248016841F47001016070474D
:1035200088ED00E010B500F0D3FB00F049FBBDE8EA
:1035300010400148FFF75BB808030020F0B50268AF
:103540001B4B1C4F4FF0804C984203D0604501D07C
:10355000B84203D122F070044A682243164C174D3A
:10356000174E984209D0604507D0B84205D0A04216
:1035700003D0A84201D0B04203D122F44077CA68F8
:103580003A434F6922F080023A4302608A68C2627D
:103590000A688262984205D0A04203D0A84201D0B6
:1035A000B04201D10969016301214161F0BD000010
:1035B000002C014000040040004001400044014054
:1035C0000048014090F82410C90706D001684A68F5
:1035D000836A22F400321A434A6090F82410890763
:1035E00006D501684A68C36A22F480321A434A60E9
:1035F00090F82410490706D501684A68036B22F445
:1036000080221A434A6090F82410090706D5016801
:103610004A68436B22F400421A434A6090F824102F
:10362000C90606D501688A68836B22F480521A4362
:103630008A6090F82410890606D501688A68C36BF1
:1036400022F400521A438A6090F82410490611D5DA
:1036500001684A68036C22F480121A434A60016CC4
:10366000B1F5801F06D101684A68436C22F4C0029C
:103670001A434A6090F82410090606D501684A6882
:10368000806C22F4002202434A607047F8B500269D
:103690000446C0F88060FDF777FE054620680068A4
:1036A0006FF07E47000708D52B4600224FF400112B
:1036B0002046009700F0BAF860B92068006840071B
:1036C0000AD52B4600224FF480012046009700F0D7
:1036D000ADF808B10320F8BD2020A067E06726669A
:1036E00084F874600020F8BD70B5044680682169D4
:1036F000E2690843616900251143226808431168A3
:10370000444B19400143116020684168E26821F48C
:10371000405111434160A169206A084321688A68C9
:1037200022F4306202438A603B492068884210D10B
:103730003A48006B10F0030011D0012805D0022890
:1037400005D003280DD102210CE004210AE0082154
:1037500008E03349884202D03249884201D1002131
:1037600000E01021E3694FF400422F484FF6EF7656
:10377000934227D1092941D2DFE801F005080E4024
:103780000B4040402200FEF713FB04E0FEF728FB4D
:1037900001E0FEF73DFB90B34100606801EB500192
:1037A000B1FBF0F080B2A0F11001B14226D84FF683
:1037B000F0710140C0F3420001432068C16023E082
:1037C0001046E9E7092919D2DFE801F005080E18CB
:1037D0000B1818181A00FEF7EBFA04E0FEF700FBCE
:1037E00001E0FEF715FB50B1616800EB5100B0FB42
:1037F000F1F080B2A0F11001B14203D9012503E03C
:103800001046F1E72168C86000206066A06628467F
:1038100070BD0000F369FFEF003801400010024066
:10382000004400400048004000127A002DE9F047B3
:103830009A4617460E4604464FF000094FF02008FE
:10384000089D4AE0681C48D0FDF79EFDA0EB0A00E9
:10385000A8422AD84DB32068016849073DD5C06900
:10386000C043000539D421684FF400600862206825
:1038700050E8001F21F4D07140E80012002AF6D170
:103880002068083050E8001F21F0010140E80012D4
:10389000002AF5D1C4F87880C4F87C80C4F8808010
:1038A00084F874900320BDE8F087216851E8000F88
:1038B00020F4D07041E80002002AF6D120680830D8
:1038C00050E8001F21F0010140E80012002AF5D164
:1038D000C4F87880C4F87C80E2E72068C06936EAE2
:1038E000000004D00020B842ACD00020DBE701206B
:1038F000F9E7FEE70907090E002804DB00F1E020E4
:1039000080F80014704700F00F0000F1E02080F80C
:10391000141D704710B52DED028BB0EE608AF0EEED
:10392000408A18EE101A18EE900A00F0C7FF00F057
:103930007040B0F1004F0CD018EE100A20F000409B
:10394000C0F1FF40C00F02BFB0EE480ABDEC028BD1
:1039500010BDB0EE680ABDEC028B10BD70B52DED48
:10396000068B9FED600A6048B0EE088A5F4C80EDE0
:10397000040A80ED038AB3EE040A80ED000AB1EE7A
:10398000000A80ED010AB3EE060A80ED020A216802
:10399000143088475448B6EE000A143080ED000A0F
:1039A0009FED530A80ED010A80ED028A9FED518A56
:1039B000514D80ED038A80ED098A296800EE101AC6
:1039C000B8EE400ADFED4D8A20EE280A80ED100A9D
:1039D000296800EE101AB8EE400A9FED499A20EED1
:1039E000090A80ED0F0A616888473F48216858300E
:1039F0008847DFED449A3C48B2EE080A5830C0EDE3
:103A0000009A80ED010AB7EE080A80ED020A80ED07
:103A1000038A80ED098A296800EE101AB8EE400A80
:103A200020EE280A80ED100A296800EE101AB8EE80
:103A3000400A20EE090A80ED0F0A616888472A488B
:103A40002168E03088472848B2EE0B0AE0309FED4D
:103A50002EAAC0ED009A80ED010A80ED02AA80ED49
:103A6000038A80ED098A296800EE101AB8EE400A30
:103A700020EE280A80ED100A296800EE101AB8EE30
:103A8000400A20EE090A80ED0F0A6168884716484F
:103A900021689C3088471448B2EE050A9C30C0ED7E
:103AA000009A80ED010A80ED02AA80ED038A80ED84
:103AB000098A296800EE101AB8EE400A20EE280A9A
:103AC00080ED100A296800EE101AB8EE400A20EEC8
:103AD000090A80ED0F0A6168BDEC068BBDE87040F5
:103AE000084700000000A0424C00002028000020F1
:103AF0009A9995410AD7233C147401400AD7233D73
:103B00009A99D93FCDCCCC3E48E11A4008B5FDF793
:103B100059FFFFF7BFFCFFF751F8FFF741F8FEF739
:103B2000C7FFFFF71DF8FFF7DFF9FFF799F8FFF779
:103B3000B9F9FFF7DFFBFFF711FF00211948FCF788
:103B4000ADFD032218491748FDF74CF90F2117481E
:103B5000FDF7BBFE4FF4E0211448FDF785FE144845
:103B6000FEF712FDFFF700FA01200021009002236A
:103B700041220846FFF7E6FA002001230DA20221A8
:103B80000090FFF737FB01231A4606210020FFF7BC
:103B9000A9FAFF2000900423502203214620FFF7BA
:103BA0006DFAFEE770010020200000202C020020AA
:103BB00008030020313233616263214023245E0018
:103BC000044890ED010AD0ED020A20EE200A80EDB3
:103BD000060A7047000000209FED060A80ED0A0AE1
:103BE00080ED0B0A80ED0C0A80ED0D0A80ED0E0AC7
:103BF0007047000000000000D0ED000AB7EE000A98
:103C0000F5EEC00AF1EE10FA01D880ED000AD0ED11
:103C1000020AF5EEC00AF1EE10FA03D1DFED180A40
:103C2000C0ED020AD0ED090AF5EEC00AF1EE10FA75
:103C300003D2DFED140AC0ED090AD0ED000AD0ED81
:103C4000021A80EEA11AD0ED031A81EEA02A31EEFD
:103C5000001A71EE022A90ED011A62EE812AC0ED7F
:103C6000042AF0EE002A02EE220A20EE010A80ED7C
:103C7000050A21EE210A80EE201A80ED061A70470F
:103C80009EC97F7F000000009FED100A80ED040AAE
:103C900080ED050A80ED060A80ED0A0A80ED0B0A28
:103CA00080ED0C0A80ED000A80ED010A80ED020A29
:103CB00080ED030A80ED090A80ED0D0A80ED0E0A01
:103CC00080ED0F0A80ED100A704700000000000030
:103CD0002DE9F04100212DED068B5948FCF7C4FC7D
:103CE000574C0121203C564884ED030AFCF7BCFCEC
:103CF00084ED040A02215248FCF7B6FC514F84EDD2
:103D0000050A10EE106A3D68284600F09FFD41EC60
:103D1000180BE06800F09AFD9FED4B9B53EC192BBC
:103D200000F054FA9FED4AAB53EC1A2B00F0A6FBBF
:103D300053EC182B00F0A2FB00F06EF9206028462F
:103D400000F084FD41EC180B206900F07FFD53EC7E
:103D5000192B00F03BFA53EC1A2B00F08FFB53ECBD
:103D6000182B00F08BFB00F057F9054660603046D9
:103D700000F06CFD53EC192B00F028FA53EC1A2BD1
:103D800000F07CFB9FED341B53EC112B00F076FB15
:103D90009FED331B53EC112B00F06EFC00F03CF94F
:103DA000A06097ED020A07F11406304686ED070A77
:103DB00035622D4DE968884797ED041A94ED010AA4
:103DC0002A49C1EE000A10EE900AC4ED070A8842A3
:103DD00002DDB1EE040A06E010EE100A2449884222
:103DE00003DD9FED240A84ED070AE06900F02EFD53
:103DF0009FED211B53EC112B00F040FB00F00CF960
:103E0000104FE0615837F86194ED020A384687EDAB
:103E1000080AE9688847D7ED0E0A96ED0E0AFFF703
:103E200079FD86ED0E0A87ED0E0ABCEEC00ABDECE8
:103E3000068B10EE100ABDE8F04100F021B800003A
:103E4000200000204C0000200000000000FEAF40D9
:103E50000000006066660A4000000060DA1B0E4049
:103E60000000002063EE9A3F280000200000A040E0
:103E70000000A841CDCCCC3DCDCCCCCCCCCCEC3FC3
:103E8000614910B50A6800EE102AF8EE400A9FED6D
:103E90005F0A60EE800AFCEEE00A10EE902ADFED89
:103EA0005C0A82420A6801EE102AB8EE411A14D860
:103EB00021EE001ABCEEC11A11EE102A821A01EE90
:103EC000102A0A68B8EE411A01EE902AF8EE611A3B
:103ED00001EEA01AFCEEC10A03E061EE200AFCEE3E
:103EE000E00A0B6810EE902A00EE903AF8EE600AB5
:103EF00060EE800AFCEEE00A10EE903A83420AD8A7
:103F0000086800EE900AF8EE600A60EE800AFCEEA7
:103F1000E00A10EE900A0B6800EE903AF8EE600AA4
:103F200060EE800AFCEEE00A10EE903A93420AD26C
:103F30000A6800EE902AF8EE600A60EE800AFCEE55
:103F4000E00A10EE902A0B6800EE903AB8EE601A84
:103F5000DFED300A21EE201ABCEEC11A11EE103A44
:103F600093420AD90A6801EE102AB8EE411A21EEEE
:103F7000201ABCEEC11A11EE102A0B6801EE103A9D
:103F8000B8EE411A21EE001ABCEEC11A11EE103A39
:103F900083420AD2086801EE100AB8EE411A21EEF7
:103FA000000ABCEEC00A10EE100A0B6800EE103AD0
:103FB000B8EE400A20EE200ABCEEC00A10EE103A1D
:103FC00083420AD9086800EE100AB8EE400A20EED3
:103FD000200ABCEEC00A10EE100A0B680A4C1B1A2D
:103FE0005B08083423600B681844074B4008103303
:103FF00018600868104440081B1D18600868801A83
:104000004008191D086010BD147401406666663FC3
:104010008FC2753D0AD7233D21F00042A2F16052C4
:10402000B2F5801F01F0004328BFD2F17F6C0BD99D
:104030005FEA001C43EAC20242EB507018BF7047AF
:1040400028BF20F001007047B2F5801FBCBF1846A2
:1040500070474FEA410C1CF5001F02D2084600F0E1
:10406000A1BC70B500F0B4FA00000089FFF7F6BFFC
:104070004FF00040A0F580007047000010B591EAB5
:10408000030F48BF83F0004300F1FE82841A71EBF6
:10409000030C05D2121943EB0C03001B61EB0C015E
:1040A000DFF824E14FEA1154A4EB135C1EEA430F3E
:1040B00018BF9EEA445F73D023EA0E03DCF1200EA2
:1040C00021EA045143F4801332D322FA0CFE10EBA0
:1040D0000E0023FA0CFE41EB0E01CCF1200E03FA88
:1040E0000EFE10EB0E0051F10001B1F5801FCCF176
:1040F000200E32D201EB045112FA0EF2BDE810404C
:1041000058BF7047401C38BF5FEA420218BF704773
:10411000002814BF20F0010041F100014FEA4103E3
:1041200013F5001F38BF7047A1F1C04100F09EBADF
:10413000012A43EB0302ACF1200CDCF11F0E32BF6D
:104140004FF0000E23FA0CF310EB030041EB045187
:10415000B4EB115FD0D0A1EB045101F580114908F7
:104160005FEA300001EB04510ED350F1000038BF7C
:1041700012FA0EFE08D1BDE81040C9E7401C38BF56
:104180005FEA4202CAD1C3E7BDE810404FEA4103EB
:1041900013F5001F38BF7047A1F1C04100F066BAA7
:1041A0009EEA445F08D011EA5E0FBDE8104004BFEC
:1041B00001F0004100207047BDE8104070B500F0EC
:1041C00007FA00BF64FBBE3E0000E0FF2DE9C041DE
:1041D00030B4DFF8A0C23CEA111418BF3CEA131453
:1041E00000F0EC8081EA03051CEA111444EAD5745E
:1041F00018BF1CEA131500F0C780A4EB05044FF0AC
:10420000004545EAC12145EAC32341EA505143EA4A
:10421000525304F17F74994204F500344FEAC020F0
:104220004FEAC22208BF904200F09C804FEA13651B
:104230000FF24016765D4FEA134506FB05F7C7F10E
:10424000807706FB07F74FEAD737A7FB036876426C
:10425000C8F58038A7FB06CE38BFA8F1010807FBD8
:1042600008E64FF0000EA6FB028CE6FB03CEDCF165
:10427000000CCEF1004E38BFAEF1010EA6FB0C587B
:104280004FF000074FF00005E6FB0E87A1FB08C6C4
:10429000A0FB07CE16EB0E0645F10005E1FB076516
:1042A00015F1E04E7EBFA4F580345FEA46066D410D
:1042B00016F1800745F100054FEA17274FEA066619
:1042C00047EA0567A6F1DE46B6F1805F4FEA15259D
:1042D0001FD9384624F0010C05EBC471BCF1FE6F08
:1042E00001EB0C1102D8F0BCBDE8008124425CBF98
:1042F00001F5801E9EEAC47F02D4F0BCBDE80081B7
:10430000244238D4F0BCA1F1C041BDE8004100F026
:10431000ADB94FEAD22242EA43524FEAD323A7FB78
:1043200002864FEAD02040EA415007FB03661EEAAE
:104330000E0F4FEAD12105FB026658BFA6EB0056CF
:10434000B6EB00564FEA520E4EEAC37E18EB0E0E45
:1043500056EB530EBDD518EB02085E417F1C55F19C
:104360000005B6E74FF480154FF000074FF0000648
:104370004FF00008ADE7F0BC4FF0000001F1C04184
:1043800001F00041BDE8008111EA0C1F0CEA131591
:1043900000D00CE013EA0C1F00F025804FF0000065
:1043A000F0BC81EA030101F00041BDE80081F0BCEE
:1043B000BDE8004181EA030100F058B9F0BCBDE856
:1043C000004170B500F004F9097EFC3E00F007B82A
:1043D00081EA03014FF0000001F00041704781EADB
:1043E000030100F043B9F0BCBDE800414FF000000C
:1043F00021497047FFFDFBF9F7F5F4F2F0EEEDEB24
:10440000E9E8E6E4E3E1E0DEDDDBDAD8D7D5D4D3D2
:10441000D1D0CFCDCCCBCAC8C7C6C5C4C2C1C0BF1E
:10442000BEBDBCBBBAB9B8B7B6B5B4B3B2B1B0AF24
:10443000AEADACABAAA9A8A8A7A6A5A4A3A3A2A108
:10444000A09F9F9E9D9C9C9B9A99999897979695C3
:1044500095949393929191908F8F8E8E8D8C8C8B5F
:104460008B8A8989888887878685858484838382E7
:10447000828181800000FF070000F87FDFF848C1DB
:1044800070B51CEA111E1EBF1CEA13159EEA0C0F24
:1044900095EA0C0F00F06F8081EA030423EA4C13C5
:1044A0004EEAD47E21EA4C1141F4801143F480138A
:1044B000AE44A1FB024CA0FB0365AEF17F7E361932
:1044C00055EB0C05A1FB034C4CF10003A0FB021CB7
:1044D00016EB0C06654153F10003094218BF46F084
:1044E000010613F4007F0BD14FEA03314FEA053088
:1044F000340341EA155140EA16506FF003020AE016
:104500004FEAC3214FEAC520F40241EA555140EA7F
:1045100056506FF0020202EB2E4201EB025585EA83
:10452000CE710AD05FEA440C18BF24F0004450F169
:10453000000041F1000120EAD47040F2FE7C6245A7
:1045400000D270BDA84214BF4FF080444FF04044E9
:10455000002E08BF0024BEF1806FA8BFA1F1C041AA
:10456000BDE8704080F282804FF0000001F1C04150
:1045700001F0004170479EEA0C0F0CEA131518BFBA
:1045800095EA0C0F06D04FF0000081EA030E0EF002
:10459000004170BD00F01CF88900013E00F007B832
:1045A00000F009B84FEA430C5FEA5C5C08D081EA8E
:1045B000030100F05BB84FEA410C5FEA5C5CF6D1A6
:1045C0004FF00000014970470000FF070000F87F2E
:1045D0000EF1020E2EF0030E5EF8046B364205D487
:1045E000012A43EB030515F5001F12D8012841EB02
:1045F000010C1CF5001F0CD80ED14FEAD17C15F52B
:10460000001F0CEB4C0C0CF1020C08BF4CEBD37CE4
:1046100004E04FF0080C01E04FEAD37C0CEB4C05B2
:1046200026FA05F606F00706B6F1040C06D20EEBE4
:10463000860CBDE870404CF0010C6047DFE80CF0E0
:10464000090B02024FF000414FF00000A1F50021DC
:1046500070BD19461046012851EB010418BFD4F56E
:10466000001484BF002001F0004170BD0808A0F5CF
:1046700000114FEA3101704710B591EA030F48BFAE
:1046800083F000433FF502AD841A71EB030C07D2AF
:1046900012198CF0004C43EB0C03001B61EB0C0176
:1046A000DFF8A4E14FEA1154A4EB135C1EEA430FB8
:1046B00018BF9EEA445F00F0B08023EA6E035242C6
:1046C00021EA0451C3EB6E0338BF5B1EDCF1200E00
:1046D00025D322FA0CFE10EB0E0043FA0CFE41EB40
:1046E0000E01CCF1200E03FA0EFE10EB0E0051F17C
:1046F0000001CCF1200E29D412FA0EF201EB045184
:10470000BDE8104058BF7047401C1CBFB2F1004FBD
:10471000704700280CBF491C20F00100704712EBC5
:10472000020E43EB030218BF4FF0010E4EEA4202A5
:10473000ACF1200CDCF11E0E54D943FA0CFE10EB48
:104740000E0051F1FF31CCF11E0ED5D50EF1010E48
:1047500012FA0EFE404141EB010101EB445C5FEABD
:104760005C5C10D910EBDE7001EB045138BFBEF178
:10477000004FBDE8104018BF704700280CBF491C0F
:1047800020F00100704730D24FEAD42C11F500110F
:1047900024F400641BD0B1FA81F20B3AA41AA41ECF
:1047A000D2F12003914030FA03F31943904001EB1A
:1047B000CC71002C01EB0451BDE81040A8BF70473C
:1047C00001F1C0414FF0000001F000417047B0FA24
:1047D00080F310FA03F100D110BDE41A173C48052C
:1047E000C90AE4E701EB045110BD491001EB045183
:1047F000BDE810404FEA300002E04FF00001704782
:104800004A0008BF0042F8D0B2F5001F28BF704729
:1048100001F000414FF0000070479EEA445F07D06E
:1048200011EA5E0FBDE8104004BF00210020704770
:10483000BDE8104070B5FFF7CBFE00BF40DFF63E8D
:1048400083F00041104670470000E0FF43004FEA4C
:10485000D30C4FEA3C0C43401FBF40070CF16051A2
:1048600013F0FE4F70471CF0006F03D100200CF0D6
:10487000004170470CF0004343EA507010B540EA25
:10488000CC0000F044F800BF000000924FEA0001A5
:10489000FFF7ECBE4FF000414FF00000A1F5002102
:1048A0007047000000EE100A00EE901AB4EE600AA5
:1048B000F1EE10FA78BF704700F00DB810B5FFF7B1
:1048C000F1FFEFF3008020F0104038BF40F00040CF
:1048D00080F3008810BDBDE8104010B500F017F857
:1048E0000000000900F007B84FF0404010F1004F01
:1048F000EFF300807047401058BFC0F140404910AE
:1049000058BFC1F140418142EFF3008070470EF182
:10491000020E2EF0030E5EF8044B244204D44FEA3C
:104920004102B2F17F4F11D84FEA4003B3F17F4FFC
:104930000CD80ED14FEAD07CB2F17F4F0CEB4C0C6F
:104940000CF1020C08BF4CEBD17C04E04FF0080CDA
:1049500001E04FEAD17C0CEB4C0324FA03F404F0A1
:104960000704B4F1040C06D20EEB840CBDE8104031
:104970004CF0010C6047DFE80CF0070802024FF032
:104980000040A0F5800010BD0846420018BFD2F1DB
:10499000807288BF00F0004010BD4FF04070E1EE23
:1049A000100A7047FF2141EAD050C005704702034A
:1049B0000405060708090A0B0C0D0E0F1010010262
:1049C000030405060708090A0B0C0D0E0F10000062
:1049D00000000000000001020304060708090000AF
:1049E0000000010203041010D0FF901020222222A8
:1049F000E22222222000000000000000000000004F
:104A0000000000000000040300FF00130C034080BE
:104A10007F000106180000000000000000000000F8
:104A200000000000000000020CE04020F84F484960
:104A3000FE48484808000000000000000000000098
:104A400000000000000004047F000000FF2222227A
:104A50003F22222220000000000000000000000091
:104A60000000000000001060028C20908E8888FFFB
:104A70008888888880000000000000000000000096
:104A800000000000000004047E018040300F0000A0
:104A90003F404040700000000000000000000000A7
:104AA00000000000000000E000FF1020080808FFE0
:104AB0000808F800000000000000000000000000EE
:104AC000000000000000010000FF008141310D03E3
:104AD0000D31418181000000000000000000000055
:104AE000000000000000404042CC0004F49494FF19
:104AF0009494F40400000000000000000000000096
:104B00000000000000000040201F20484442415F98
:104B10004142444840000000000000000000000046
:104B20000000000000000000F8494A4C48F8484CDA
:104B30004A49F800000000000000000000000000EA
:104B400000000000000010101312121212FF1212C7
:104B500012121310100000000000000000000000FE
:104B600000000000000020C20C80027A4A4A7E4AFF
:104B70007E4A4A7A020000000000000000000000A7
:104B800000000000000004047E0144251545857DD9
:104B9000050515254400000000000000000000008D
:104BA00000000000000000FE2222FE0000F11610AE
:104BB000101814F3000000000000000000000000C6
:104BC000000000000000807F0282FF804021190762
:104BD000013F4141700000000000000000000000A3
:104BE00000000000000000202020A06000FF608086
:104BF000402018000000000000000000000000003D
:104C0000000000000000201008060140807F000125
:104C10000204081010000000000000000000000066
:104C20000000000000000000000000000000002F55
:104C3000000000000700070000147F147F14002408
:104C40002A7F2A1200626408132300364955225035
:104C500000000503000000001C224100000041226A
:104C60001C000014083E08140008083E0808000054
:104C700000A060000008080808080000606000004C
:104C8000002010080402003E5149453E0000427FCA
:104C90004000004261514946002141454B31001816
:104CA00014127F10002745454539003C4A494930D8
:104CB0000001710905030036494949360006494992
:104CC000291E00003636000000005636000000089D
:104CD000142241000014141414140000412214087A
:104CE00000020151090600324959513E007C12115F
:104CF000127C007F49494936003E41414122007FF4
:104D00004141221C007F49494941007F09090901AD
:104D1000003E4149497A007F0808087F0000417F32
:104D20004100002040413F01007F08142241007FE4
:104D300040404040007F020C027F007F0408107F4B
:104D4000003E4141413E007F09090906003E4151B4
:104D5000215E007F09192946004649494931000171
:104D6000017F0101003F4040403F001F2040201FC5
:104D7000003F4038403F0063140814630007087088
:104D8000080700615149454300007F41410000553B
:104D90002A552A55000041417F0000040201020407
:104DA00000404040404000000102040000205454F4
:104DB0005478007F48444438003844444420003844
:104DC0004444487F00385454541800087E090102B6
:104DD0000018A4A4A47C007F080404780000447D8B
:104DE0004000004080847D00007F102844000000C7
:104DF000417F4000007C04180478007C080404789B
:104E000000384444443800FC242424180018242486
:104E100018FC007C08040408004854545420000482
:104E20003F444020003C4040207C001C2040201C8F
:104E3000003C4030403C004428102844001CA0A006
:104E4000A07C004464544C44141414141414000042
:104E50000000000000000000000000000000000052
:104E600000F80000000000000033300000000010D7
:104E70000C06100C0600000000000000000040C0FE
:104E80007840C0784000043F04043F0404000070F0
:104E900088FC08300000001820FF211E0000F008E8
:104EA000F000E018000000211C031E211E0000F08D
:104EB0000888700000001E212324192721101016D5
:104EC0000E000000000000000000000000000000D4
:104ED00000E0180402000000000718204000000253
:104EE0000418E000000000402018070000004040C7
:104EF00080F0804040000202010F01020200000029
:104F000000F0000000000101011F0101010000008C
:104F100000000000000080B07000000000000000F1
:104F2000000000000000000101010101010100007A
:104F30000000000000000030300000000000000011
:104F4000000080601804006018060100000000E006
:104F500010080810E000000F102020100F000010B3
:104F600010F8000000000020203F2020000000700A
:104F70000808088870000030282422213000003002
:104F80000888884830000018202020110E000000FA
:104F9000C02010F8000000070424243F240000F87B
:104FA0000888880808000019212020110E0000E060
:104FB000108888180000000F112020110E00003802
:104FC0000808C83808000000003F0000000000701A
:104FD000880808887000001C222121221C0000E0A3
:104FE00010080810E0000000312222110F0000001C
:104FF00000C0C000000000000030300000000000D1
:105000000080000000000000806000000000000040
:1050100080402010080000010204081020004040D9
:10502000404040404000040404040404040000081C
:1050300010204080000000201008040201000070D1
:1050400048080808F0000000003036010000C030B9
:10505000C828E810E0000718272423140B000000DC
:10506000C038E0000000203C23020227382008F866
:10507000888888700000203F202020110E00C0305A
:10508000080808083800071820202010080008F831
:1050900008080810E000203F202020100F0008F82A
:1050A0008888E8081000203F20202320180008F8F6
:1050B0008888E8081000203F200003000000C0306E
:1050C00008080838000007182020221E020008F8EF
:1050D00008000008F808203F210101213F200008B6
:1050E00008F8080800000020203F202000000000F1
:1050F0000808F8080800C08080807F00000008F8D9
:1051000088C028180800203F20012638200008F811
:10511000080000000000203F20202020300008F878
:10512000F800F8F80800203F003F003F200008F892
:1051300030C00008F808203F200007183F00E010AA
:1051400008080810E0000F10202020100F0008F8B9
:1051500008080808F000203F210101010000E010CC
:1051600008080810E0000F18242438504F0008F8F1
:10517000888888887000203F2000030C3020007051
:105180008808080838000038202121221C0018084F
:1051900008F8080818000000203F2000000008F868
:1051A00008000008F808001F202020201F000878B1
:1051B000880000C83808000007380E010000F80811
:1051C00000F80008F800033C0700073C030008183B
:1051D00068808068180820302C03032C30200838A1
:1051E000C800C83808000000203F20000000100858
:1051F0000808C838080020382621202018000000A0
:1052000000FE020202000000007F40404000000C4F
:1052100030C000000000000000010638C00000029D
:105220000202FE000000004040407F00000000003D
:105230000402020204000000000000000000000060
:10524000000000000000808080808080808000025C
:105250000204000000000000000000000000000048
:105260008080808000000019242222223F2008F83C
:10527000008080000000003F112020110E0000007F
:10528000008080800000000E11202020110000000E
:1052900000808088F800000E112020103F200000C0
:1052A000808080800000001F2222222213000080C4
:1052B00080F0888888180020203F2020000000000F
:1052C000808080808000006B94949493600008F844
:1052D000008080800000203F210000203F200080CF
:1052E0009898000000000020203F202000000000CF
:1052F00000809898000000C08080807F000008F83F
:10530000000080808000203F24022D302000000813
:1053100008F8000000000020203F202000008080CE
:10532000808080808000203F20003F20003F8080E0
:10533000008080800000203F210000203F200000EE
:10534000808080800000001F202020201F0080809F
:1053500000808000000080FFA12020110E000000CE
:10536000008080808000000E112020A0FF808080BF
:1053700080008080800020203F212000010000006C
:105380008080808080000033242424241900008041
:1053900080E0808000000000001F2020000080804E
:1053A000000000808000001F202020103F2080800F
:1053B00080000080808000010E300806010080809F
:1053C0000080008080800F300C030C300F000080C4
:1053D0008000808080000020312E0E3120008080EF
:1053E00080000080808080818E701806010000801F
:1053F0008080808080000021302C2221300000003D
:105400000000807C020200000000003F40400000DD
:105410000000FF00000000000000FF00000000028C
:10542000027C800000000040403F000000000006B9
:10543000010102020404000000000000000000005E
:1054400060540008000000204C000000C401000867
:10545000AC5400084C0000206C0A0000E001000879
:10546000000000000000000000000000000000003C
:10547000000000000000000000000000000000002C
:105480000000000000000000893C0008F93B000813
:10549000D93B0008210400080000000001000000C2
:0C54A000100000000000000000127A0064
:040000050800018965
:00000001FF
